{
  "_format": "hh-sol-artifact-1",
  "contractName": "PrivilegeCard",
  "sourceName": "contracts/PrivilegeCard.sol",
  "abi": [
    {
      "inputs": [
        {
          "internalType": "string",
          "name": "_name",
          "type": "string"
        },
        {
          "internalType": "string",
          "name": "_symbol",
          "type": "string"
        },
        {
          "internalType": "string",
          "name": "_tokenURI",
          "type": "string"
        },
        {
          "internalType": "uint256",
          "name": "_cost",
          "type": "uint256"
        },
        {
          "internalType": "uint256",
          "name": "_quantity",
          "type": "uint256"
        },
        {
          "internalType": "uint8",
          "name": "_discount",
          "type": "uint8"
        }
      ],
      "stateMutability": "nonpayable",
      "type": "constructor"
    },
    {
      "anonymous": false,
      "inputs": [
        {
          "indexed": true,
          "internalType": "address",
          "name": "owner",
          "type": "address"
        },
        {
          "indexed": true,
          "internalType": "address",
          "name": "approved",
          "type": "address"
        },
        {
          "indexed": true,
          "internalType": "uint256",
          "name": "tokenId",
          "type": "uint256"
        }
      ],
      "name": "Approval",
      "type": "event"
    },
    {
      "anonymous": false,
      "inputs": [
        {
          "indexed": true,
          "internalType": "address",
          "name": "owner",
          "type": "address"
        },
        {
          "indexed": true,
          "internalType": "address",
          "name": "operator",
          "type": "address"
        },
        {
          "indexed": false,
          "internalType": "bool",
          "name": "approved",
          "type": "bool"
        }
      ],
      "name": "ApprovalForAll",
      "type": "event"
    },
    {
      "anonymous": false,
      "inputs": [
        {
          "indexed": true,
          "internalType": "address",
          "name": "previousOwner",
          "type": "address"
        },
        {
          "indexed": true,
          "internalType": "address",
          "name": "newOwner",
          "type": "address"
        }
      ],
      "name": "OwnershipTransferred",
      "type": "event"
    },
    {
      "anonymous": false,
      "inputs": [
        {
          "indexed": true,
          "internalType": "address",
          "name": "from",
          "type": "address"
        },
        {
          "indexed": true,
          "internalType": "address",
          "name": "to",
          "type": "address"
        },
        {
          "indexed": true,
          "internalType": "uint256",
          "name": "tokenId",
          "type": "uint256"
        }
      ],
      "name": "Transfer",
      "type": "event"
    },
    {
      "inputs": [
        {
          "internalType": "address",
          "name": "to",
          "type": "address"
        },
        {
          "internalType": "uint256",
          "name": "tokenId",
          "type": "uint256"
        }
      ],
      "name": "approve",
      "outputs": [],
      "stateMutability": "nonpayable",
      "type": "function"
    },
    {
      "inputs": [
        {
          "internalType": "address",
          "name": "owner",
          "type": "address"
        }
      ],
      "name": "balanceOf",
      "outputs": [
        {
          "internalType": "uint256",
          "name": "",
          "type": "uint256"
        }
      ],
      "stateMutability": "view",
      "type": "function"
    },
    {
      "inputs": [],
      "name": "baseTokenURI",
      "outputs": [
        {
          "internalType": "string",
          "name": "",
          "type": "string"
        }
      ],
      "stateMutability": "view",
      "type": "function"
    },
    {
      "inputs": [],
      "name": "cost",
      "outputs": [
        {
          "internalType": "uint256",
          "name": "",
          "type": "uint256"
        }
      ],
      "stateMutability": "view",
      "type": "function"
    },
    {
      "inputs": [],
      "name": "discount",
      "outputs": [
        {
          "internalType": "uint8",
          "name": "",
          "type": "uint8"
        }
      ],
      "stateMutability": "view",
      "type": "function"
    },
    {
      "inputs": [
        {
          "internalType": "uint256",
          "name": "tokenId",
          "type": "uint256"
        }
      ],
      "name": "getApproved",
      "outputs": [
        {
          "internalType": "address",
          "name": "",
          "type": "address"
        }
      ],
      "stateMutability": "view",
      "type": "function"
    },
    {
      "inputs": [
        {
          "internalType": "address",
          "name": "owner",
          "type": "address"
        },
        {
          "internalType": "address",
          "name": "operator",
          "type": "address"
        }
      ],
      "name": "isApprovedForAll",
      "outputs": [
        {
          "internalType": "bool",
          "name": "",
          "type": "bool"
        }
      ],
      "stateMutability": "view",
      "type": "function"
    },
    {
      "inputs": [
        {
          "internalType": "address",
          "name": "_to",
          "type": "address"
        }
      ],
      "name": "mint",
      "outputs": [],
      "stateMutability": "payable",
      "type": "function"
    },
    {
      "inputs": [],
      "name": "name",
      "outputs": [
        {
          "internalType": "string",
          "name": "",
          "type": "string"
        }
      ],
      "stateMutability": "view",
      "type": "function"
    },
    {
      "inputs": [],
      "name": "owner",
      "outputs": [
        {
          "internalType": "address",
          "name": "",
          "type": "address"
        }
      ],
      "stateMutability": "view",
      "type": "function"
    },
    {
      "inputs": [
        {
          "internalType": "uint256",
          "name": "tokenId",
          "type": "uint256"
        }
      ],
      "name": "ownerOf",
      "outputs": [
        {
          "internalType": "address",
          "name": "",
          "type": "address"
        }
      ],
      "stateMutability": "view",
      "type": "function"
    },
    {
      "inputs": [],
      "name": "quantity",
      "outputs": [
        {
          "internalType": "uint256",
          "name": "",
          "type": "uint256"
        }
      ],
      "stateMutability": "view",
      "type": "function"
    },
    {
      "inputs": [],
      "name": "renounceOwnership",
      "outputs": [],
      "stateMutability": "nonpayable",
      "type": "function"
    },
    {
      "inputs": [
        {
          "internalType": "address",
          "name": "from",
          "type": "address"
        },
        {
          "internalType": "address",
          "name": "to",
          "type": "address"
        },
        {
          "internalType": "uint256",
          "name": "tokenId",
          "type": "uint256"
        }
      ],
      "name": "safeTransferFrom",
      "outputs": [],
      "stateMutability": "nonpayable",
      "type": "function"
    },
    {
      "inputs": [
        {
          "internalType": "address",
          "name": "from",
          "type": "address"
        },
        {
          "internalType": "address",
          "name": "to",
          "type": "address"
        },
        {
          "internalType": "uint256",
          "name": "tokenId",
          "type": "uint256"
        },
        {
          "internalType": "bytes",
          "name": "data",
          "type": "bytes"
        }
      ],
      "name": "safeTransferFrom",
      "outputs": [],
      "stateMutability": "nonpayable",
      "type": "function"
    },
    {
      "inputs": [
        {
          "internalType": "address",
          "name": "operator",
          "type": "address"
        },
        {
          "internalType": "bool",
          "name": "approved",
          "type": "bool"
        }
      ],
      "name": "setApprovalForAll",
      "outputs": [],
      "stateMutability": "nonpayable",
      "type": "function"
    },
    {
      "inputs": [
        {
          "internalType": "bytes4",
          "name": "interfaceId",
          "type": "bytes4"
        }
      ],
      "name": "supportsInterface",
      "outputs": [
        {
          "internalType": "bool",
          "name": "",
          "type": "bool"
        }
      ],
      "stateMutability": "view",
      "type": "function"
    },
    {
      "inputs": [],
      "name": "symbol",
      "outputs": [
        {
          "internalType": "string",
          "name": "",
          "type": "string"
        }
      ],
      "stateMutability": "view",
      "type": "function"
    },
    {
      "inputs": [
        {
          "internalType": "uint256",
          "name": "index",
          "type": "uint256"
        }
      ],
      "name": "tokenByIndex",
      "outputs": [
        {
          "internalType": "uint256",
          "name": "",
          "type": "uint256"
        }
      ],
      "stateMutability": "view",
      "type": "function"
    },
    {
      "inputs": [
        {
          "internalType": "address",
          "name": "owner",
          "type": "address"
        },
        {
          "internalType": "uint256",
          "name": "index",
          "type": "uint256"
        }
      ],
      "name": "tokenOfOwnerByIndex",
      "outputs": [
        {
          "internalType": "uint256",
          "name": "",
          "type": "uint256"
        }
      ],
      "stateMutability": "view",
      "type": "function"
    },
    {
      "inputs": [
        {
          "internalType": "uint256",
          "name": "tokenId",
          "type": "uint256"
        }
      ],
      "name": "tokenURI",
      "outputs": [
        {
          "internalType": "string",
          "name": "",
          "type": "string"
        }
      ],
      "stateMutability": "view",
      "type": "function"
    },
    {
      "inputs": [],
      "name": "totalSupply",
      "outputs": [
        {
          "internalType": "uint256",
          "name": "",
          "type": "uint256"
        }
      ],
      "stateMutability": "view",
      "type": "function"
    },
    {
      "inputs": [
        {
          "internalType": "address",
          "name": "from",
          "type": "address"
        },
        {
          "internalType": "address",
          "name": "to",
          "type": "address"
        },
        {
          "internalType": "uint256",
          "name": "tokenId",
          "type": "uint256"
        }
      ],
      "name": "transferFrom",
      "outputs": [],
      "stateMutability": "nonpayable",
      "type": "function"
    },
    {
      "inputs": [
        {
          "internalType": "address",
          "name": "newOwner",
          "type": "address"
        }
      ],
      "name": "transferOwnership",
      "outputs": [],
      "stateMutability": "nonpayable",
      "type": "function"
    },
    {
      "inputs": [
        {
          "internalType": "address",
          "name": "_owner",
          "type": "address"
        }
      ],
      "name": "walletOfOwner",
      "outputs": [
        {
          "internalType": "uint256[]",
          "name": "",
          "type": "uint256[]"
        }
      ],
      "stateMutability": "view",
      "type": "function"
    },
    {
      "inputs": [],
      "name": "withdraw",
      "outputs": [],
      "stateMutability": "payable",
      "type": "function"
    }
  ],
  "bytecode": "0x60806040523480156200001157600080fd5b50604051620051dd380380620051dd8339818101604052810190620000379190620010fc565b858581600090816200004a919062001436565b5080600190816200005c919062001436565b5050506200007f620000736200013160201b60201c565b6200013960201b60201c565b60008160ff1610158062000097575060648160ff1611155b620000d9576040517f08c379a0000000000000000000000000000000000000000000000000000000008152600401620000d090620015a4565b60405180910390fd5b83600c9081620000ea919062001436565b5082600d8190555081600e8190555080600f60006101000a81548160ff021916908360ff1602179055506200012533620001ff60201b60201c565b50505050505062001b0b565b600033905090565b6000600a60009054906101000a900473ffffffffffffffffffffffffffffffffffffffff16905081600a60006101000a81548173ffffffffffffffffffffffffffffffffffffffff021916908373ffffffffffffffffffffffffffffffffffffffff1602179055508173ffffffffffffffffffffffffffffffffffffffff168173ffffffffffffffffffffffffffffffffffffffff167f8be0079c531659141344cd1fd0a4f28419497f9722a3daafe3b4186f6b6457e060405160405180910390a35050565b6200020f620002ba60201b60201c565b73ffffffffffffffffffffffffffffffffffffffff163373ffffffffffffffffffffffffffffffffffffffff16146200025357600d543410156200025257600080fd5b5b600e5462000266620002e460201b60201c565b11156200027257600080fd5b62000289600b620002f160201b620010e31760201c565b6000620002a2600b6200030760201b620010f91760201c565b9050620002b682826200031560201b60201c565b5050565b6000600a60009054906101000a900473ffffffffffffffffffffffffffffffffffffffff16905090565b6000600880549050905090565b6001816000016000828254019250508190555050565b600081600001549050919050565b620003378282604051806020016040528060008152506200033b60201b60201c565b5050565b6200034d8383620003a960201b60201c565b620003626000848484620005ef60201b60201c565b620003a4576040517f08c379a00000000000000000000000000000000000000000000000000000000081526004016200039b906200163c565b60405180910390fd5b505050565b600073ffffffffffffffffffffffffffffffffffffffff168273ffffffffffffffffffffffffffffffffffffffff16036200041b576040517f08c379a00000000000000000000000000000000000000000000000000000000081526004016200041290620016ae565b60405180910390fd5b6200042c816200079860201b60201c565b156200046f576040517f08c379a0000000000000000000000000000000000000000000000000000000008152600401620004669062001720565b60405180910390fd5b62000485600083836001620007e160201b60201c565b62000496816200079860201b60201c565b15620004d9576040517f08c379a0000000000000000000000000000000000000000000000000000000008152600401620004d09062001720565b60405180910390fd5b6001600360008473ffffffffffffffffffffffffffffffffffffffff1673ffffffffffffffffffffffffffffffffffffffff16815260200190815260200160002060008282540192505081905550816002600083815260200190815260200160002060006101000a81548173ffffffffffffffffffffffffffffffffffffffff021916908373ffffffffffffffffffffffffffffffffffffffff160217905550808273ffffffffffffffffffffffffffffffffffffffff16600073ffffffffffffffffffffffffffffffffffffffff167fddf252ad1be2c89b69c2b068fc378daa952ba7f163c4a11628f55a4df523b3ef60405160405180910390a4620005eb6000838360016200097560201b60201c565b5050565b60006200061d8473ffffffffffffffffffffffffffffffffffffffff166200097b60201b620011071760201c565b156200078b578373ffffffffffffffffffffffffffffffffffffffff1663150b7a026200064f6200013160201b60201c565b8786866040518563ffffffff1660e01b8152600401620006739493929190620017f5565b6020604051808303816000875af1925050508015620006b257506040513d601f19601f82011682018060405250810190620006af9190620018a6565b60015b6200073a573d8060008114620006e5576040519150601f19603f3d011682016040523d82523d6000602084013e620006ea565b606091505b50600081510362000732576040517f08c379a000000000000000000000000000000000000000000000000000000000815260040162000729906200163c565b60405180910390fd5b805181602001fd5b63150b7a0260e01b7bffffffffffffffffffffffffffffffffffffffffffffffffffffffff1916817bffffffffffffffffffffffffffffffffffffffffffffffffffffffff19161491505062000790565b600190505b949350505050565b60008073ffffffffffffffffffffffffffffffffffffffff16620007c2836200099e60201b60201c565b73ffffffffffffffffffffffffffffffffffffffff1614159050919050565b620007fa84848484620009db60201b6200112a1760201c565b600181111562000841576040517f08c379a000000000000000000000000000000000000000000000000000000000815260040162000838906200194e565b60405180910390fd5b6000829050600073ffffffffffffffffffffffffffffffffffffffff168573ffffffffffffffffffffffffffffffffffffffff160362000892576200088c8162000b0860201b60201c565b620008da565b8373ffffffffffffffffffffffffffffffffffffffff168573ffffffffffffffffffffffffffffffffffffffff1614620008d957620008d8858262000b5160201b60201c565b5b5b600073ffffffffffffffffffffffffffffffffffffffff168473ffffffffffffffffffffffffffffffffffffffff16036200092657620009208162000cce60201b60201c565b6200096e565b8473ffffffffffffffffffffffffffffffffffffffff168473ffffffffffffffffffffffffffffffffffffffff16146200096d576200096c848262000daa60201b60201c565b5b5b5050505050565b50505050565b6000808273ffffffffffffffffffffffffffffffffffffffff163b119050919050565b60006002600083815260200190815260200160002060009054906101000a900473ffffffffffffffffffffffffffffffffffffffff169050919050565b600181111562000b0257600073ffffffffffffffffffffffffffffffffffffffff168473ffffffffffffffffffffffffffffffffffffffff161462000a735780600360008673ffffffffffffffffffffffffffffffffffffffff1673ffffffffffffffffffffffffffffffffffffffff168152602001908152602001600020600082825462000a6b91906200199f565b925050819055505b600073ffffffffffffffffffffffffffffffffffffffff168373ffffffffffffffffffffffffffffffffffffffff161462000b015780600360008573ffffffffffffffffffffffffffffffffffffffff1673ffffffffffffffffffffffffffffffffffffffff168152602001908152602001600020600082825462000af99190620019da565b925050819055505b5b50505050565b6008805490506009600083815260200190815260200160002081905550600881908060018154018082558091505060019003906000526020600020016000909190919091505550565b6000600162000b6b8462000e3660201b62000c631760201c565b62000b7791906200199f565b905060006007600084815260200190815260200160002054905081811462000c5d576000600660008673ffffffffffffffffffffffffffffffffffffffff1673ffffffffffffffffffffffffffffffffffffffff168152602001908152602001600020600084815260200190815260200160002054905080600660008773ffffffffffffffffffffffffffffffffffffffff1673ffffffffffffffffffffffffffffffffffffffff168152602001908152602001600020600084815260200190815260200160002081905550816007600083815260200190815260200160002081905550505b6007600084815260200190815260200160002060009055600660008573ffffffffffffffffffffffffffffffffffffffff1673ffffffffffffffffffffffffffffffffffffffff16815260200190815260200160002060008381526020019081526020016000206000905550505050565b6000600160088054905062000ce491906200199f565b905060006009600084815260200190815260200160002054905060006008838154811062000d175762000d1662001a15565b5b90600052602060002001549050806008838154811062000d3c5762000d3b62001a15565b5b90600052602060002001819055508160096000838152602001908152602001600020819055506009600085815260200190815260200160002060009055600880548062000d8e5762000d8d62001a44565b5b6001900381819060005260206000200160009055905550505050565b600062000dc28362000e3660201b62000c631760201c565b905081600660008573ffffffffffffffffffffffffffffffffffffffff1673ffffffffffffffffffffffffffffffffffffffff168152602001908152602001600020600083815260200190815260200160002081905550806007600084815260200190815260200160002081905550505050565b60008073ffffffffffffffffffffffffffffffffffffffff168273ffffffffffffffffffffffffffffffffffffffff160362000ea9576040517f08c379a000000000000000000000000000000000000000000000000000000000815260040162000ea09062001ae9565b60405180910390fd5b600360008373ffffffffffffffffffffffffffffffffffffffff1673ffffffffffffffffffffffffffffffffffffffff168152602001908152602001600020549050919050565b6000604051905090565b600080fd5b600080fd5b600080fd5b600080fd5b6000601f19601f8301169050919050565b7f4e487b7100000000000000000000000000000000000000000000000000000000600052604160045260246000fd5b62000f598262000f0e565b810181811067ffffffffffffffff8211171562000f7b5762000f7a62000f1f565b5b80604052505050565b600062000f9062000ef0565b905062000f9e828262000f4e565b919050565b600067ffffffffffffffff82111562000fc15762000fc062000f1f565b5b62000fcc8262000f0e565b9050602081019050919050565b60005b8381101562000ff957808201518184015260208101905062000fdc565b60008484015250505050565b60006200101c620010168462000fa3565b62000f84565b9050828152602081018484840111156200103b576200103a62000f09565b5b6200104884828562000fd9565b509392505050565b600082601f83011262001068576200106762000f04565b5b81516200107a84826020860162001005565b91505092915050565b6000819050919050565b620010988162001083565b8114620010a457600080fd5b50565b600081519050620010b8816200108d565b92915050565b600060ff82169050919050565b620010d681620010be565b8114620010e257600080fd5b50565b600081519050620010f681620010cb565b92915050565b60008060008060008060c087890312156200111c576200111b62000efa565b5b600087015167ffffffffffffffff8111156200113d576200113c62000eff565b5b6200114b89828a0162001050565b965050602087015167ffffffffffffffff8111156200116f576200116e62000eff565b5b6200117d89828a0162001050565b955050604087015167ffffffffffffffff811115620011a157620011a062000eff565b5b620011af89828a0162001050565b9450506060620011c289828a01620010a7565b9350506080620011d589828a01620010a7565b92505060a0620011e889828a01620010e5565b9150509295509295509295565b600081519050919050565b7f4e487b7100000000000000000000000000000000000000000000000000000000600052602260045260246000fd5b600060028204905060018216806200124857607f821691505b6020821081036200125e576200125d62001200565b5b50919050565b60008190508160005260206000209050919050565b60006020601f8301049050919050565b600082821b905092915050565b600060088302620012c87fffffffffffffffffffffffffffffffffffffffffffffffffffffffffffffffff8262001289565b620012d4868362001289565b95508019841693508086168417925050509392505050565b6000819050919050565b600062001317620013116200130b8462001083565b620012ec565b62001083565b9050919050565b6000819050919050565b6200133383620012f6565b6200134b62001342826200131e565b84845462001296565b825550505050565b600090565b6200136262001353565b6200136f81848462001328565b505050565b5b8181101562001397576200138b60008262001358565b60018101905062001375565b5050565b601f821115620013e657620013b08162001264565b620013bb8462001279565b81016020851015620013cb578190505b620013e3620013da8562001279565b83018262001374565b50505b505050565b600082821c905092915050565b60006200140b60001984600802620013eb565b1980831691505092915050565b6000620014268383620013f8565b9150826002028217905092915050565b6200144182620011f5565b67ffffffffffffffff8111156200145d576200145c62000f1f565b5b6200146982546200122f565b620014768282856200139b565b600060209050601f831160018114620014ae576000841562001499578287015190505b620014a5858262001418565b86555062001515565b601f198416620014be8662001264565b60005b82811015620014e857848901518255600182019150602085019450602081019050620014c1565b8683101562001508578489015162001504601f891682620013f8565b8355505b6001600288020188555050505b505050505050565b600082825260208201905092915050565b7f54686520646973636f756e74206d757374206265206265747765656e2030206160008201527f6e64203130302028696e636c7573697665290000000000000000000000000000602082015250565b60006200158c6032836200151d565b915062001599826200152e565b604082019050919050565b60006020820190508181036000830152620015bf816200157d565b9050919050565b7f4552433732313a207472616e7366657220746f206e6f6e20455243373231526560008201527f63656976657220696d706c656d656e7465720000000000000000000000000000602082015250565b6000620016246032836200151d565b91506200163182620015c6565b604082019050919050565b60006020820190508181036000830152620016578162001615565b9050919050565b7f4552433732313a206d696e7420746f20746865207a65726f2061646472657373600082015250565b6000620016966020836200151d565b9150620016a3826200165e565b602082019050919050565b60006020820190508181036000830152620016c98162001687565b9050919050565b7f4552433732313a20746f6b656e20616c7265616479206d696e74656400000000600082015250565b600062001708601c836200151d565b91506200171582620016d0565b602082019050919050565b600060208201905081810360008301526200173b81620016f9565b9050919050565b600073ffffffffffffffffffffffffffffffffffffffff82169050919050565b60006200176f8262001742565b9050919050565b620017818162001762565b82525050565b620017928162001083565b82525050565b600081519050919050565b600082825260208201905092915050565b6000620017c18262001798565b620017cd8185620017a3565b9350620017df81856020860162000fd9565b620017ea8162000f0e565b840191505092915050565b60006080820190506200180c600083018762001776565b6200181b602083018662001776565b6200182a604083018562001787565b81810360608301526200183e8184620017b4565b905095945050505050565b60007fffffffff0000000000000000000000000000000000000000000000000000000082169050919050565b620018808162001849565b81146200188c57600080fd5b50565b600081519050620018a08162001875565b92915050565b600060208284031215620018bf57620018be62000efa565b5b6000620018cf848285016200188f565b91505092915050565b7f455243373231456e756d657261626c653a20636f6e736563757469766520747260008201527f616e7366657273206e6f7420737570706f727465640000000000000000000000602082015250565b6000620019366035836200151d565b91506200194382620018d8565b604082019050919050565b60006020820190508181036000830152620019698162001927565b9050919050565b7f4e487b7100000000000000000000000000000000000000000000000000000000600052601160045260246000fd5b6000620019ac8262001083565b9150620019b98362001083565b9250828203905081811115620019d457620019d362001970565b5b92915050565b6000620019e78262001083565b9150620019f48362001083565b925082820190508082111562001a0f5762001a0e62001970565b5b92915050565b7f4e487b7100000000000000000000000000000000000000000000000000000000600052603260045260246000fd5b7f4e487b7100000000000000000000000000000000000000000000000000000000600052603160045260246000fd5b7f4552433732313a2061646472657373207a65726f206973206e6f74206120766160008201527f6c6964206f776e65720000000000000000000000000000000000000000000000602082015250565b600062001ad16029836200151d565b915062001ade8262001a73565b604082019050919050565b6000602082019050818103600083015262001b048162001ac2565b9050919050565b6136c28062001b1b6000396000f3fe6080604052600436106101815760003560e01c80636352211e116100d157806395d89b411161008a578063c87b56dd11610064578063c87b56dd14610568578063d547cfb7146105a5578063e985e9c5146105d0578063f2fde38b1461060d57610181565b806395d89b41146104eb578063a22cb46514610516578063b88d4fde1461053f57610181565b80636352211e146103e85780636a627842146104255780636b6f4a9d1461044157806370a082311461046c578063715018a6146104a95780638da5cb5b146104c057610181565b806318160ddd1161013e5780633ccfd60b116101185780633ccfd60b1461033b57806342842e0e14610345578063438b63001461036e5780634f6ccce7146103ab57610181565b806318160ddd146102aa57806323b872dd146102d55780632f745c59146102fe57610181565b806301ffc9a71461018657806306fdde03146101c3578063081812fc146101ee578063095ea7b31461022b57806313faede61461025457806317fc45e21461027f575b600080fd5b34801561019257600080fd5b506101ad60048036038101906101a891906124b3565b610636565b6040516101ba91906124fb565b60405180910390f35b3480156101cf57600080fd5b506101d86106b0565b6040516101e591906125a6565b60405180910390f35b3480156101fa57600080fd5b50610215600480360381019061021091906125fe565b610742565b604051610222919061266c565b60405180910390f35b34801561023757600080fd5b50610252600480360381019061024d91906126b3565b610788565b005b34801561026057600080fd5b5061026961089f565b6040516102769190612702565b60405180910390f35b34801561028b57600080fd5b506102946108a5565b6040516102a19190612702565b60405180910390f35b3480156102b657600080fd5b506102bf6108ab565b6040516102cc9190612702565b60405180910390f35b3480156102e157600080fd5b506102fc60048036038101906102f7919061271d565b6108b8565b005b34801561030a57600080fd5b50610325600480360381019061032091906126b3565b610918565b6040516103329190612702565b60405180910390f35b6103436109bd565b005b34801561035157600080fd5b5061036c6004803603810190610367919061271d565b610a05565b005b34801561037a57600080fd5b5061039560048036038101906103909190612770565b610a25565b6040516103a2919061285b565b60405180910390f35b3480156103b757600080fd5b506103d260048036038101906103cd91906125fe565b610ad3565b6040516103df9190612702565b60405180910390f35b3480156103f457600080fd5b5061040f600480360381019061040a91906125fe565b610b44565b60405161041c919061266c565b60405180910390f35b61043f600480360381019061043a9190612770565b610bca565b005b34801561044d57600080fd5b50610456610c50565b6040516104639190612899565b60405180910390f35b34801561047857600080fd5b50610493600480360381019061048e9190612770565b610c63565b6040516104a09190612702565b60405180910390f35b3480156104b557600080fd5b506104be610d1a565b005b3480156104cc57600080fd5b506104d5610d2e565b6040516104e2919061266c565b60405180910390f35b3480156104f757600080fd5b50610500610d58565b60405161050d91906125a6565b60405180910390f35b34801561052257600080fd5b5061053d600480360381019061053891906128e0565b610dea565b005b34801561054b57600080fd5b5061056660048036038101906105619190612a55565b610e00565b005b34801561057457600080fd5b5061058f600480360381019061058a91906125fe565b610e62565b60405161059c91906125a6565b60405180910390f35b3480156105b157600080fd5b506105ba610f3e565b6040516105c791906125a6565b60405180910390f35b3480156105dc57600080fd5b506105f760048036038101906105f29190612ad8565b610fcc565b60405161060491906124fb565b60405180910390f35b34801561061957600080fd5b50610634600480360381019061062f9190612770565b611060565b005b60007f780e9d63000000000000000000000000000000000000000000000000000000007bffffffffffffffffffffffffffffffffffffffffffffffffffffffff1916827bffffffffffffffffffffffffffffffffffffffffffffffffffffffff191614806106a957506106a882611250565b5b9050919050565b6060600080546106bf90612b47565b80601f01602080910402602001604051908101604052809291908181526020018280546106eb90612b47565b80156107385780601f1061070d57610100808354040283529160200191610738565b820191906000526020600020905b81548152906001019060200180831161071b57829003601f168201915b5050505050905090565b600061074d82611332565b6004600083815260200190815260200160002060009054906101000a900473ffffffffffffffffffffffffffffffffffffffff169050919050565b600061079382610b44565b90508073ffffffffffffffffffffffffffffffffffffffff168373ffffffffffffffffffffffffffffffffffffffff1603610803576040517f08c379a00000000000000000000000000000000000000000000000000000000081526004016107fa90612bea565b60405180910390fd5b8073ffffffffffffffffffffffffffffffffffffffff1661082261137d565b73ffffffffffffffffffffffffffffffffffffffff16148061085157506108508161084b61137d565b610fcc565b5b610890576040517f08c379a000000000000000000000000000000000000000000000000000000000815260040161088790612c7c565b60405180910390fd5b61089a8383611385565b505050565b600d5481565b600e5481565b6000600880549050905090565b6108c96108c361137d565b8261143e565b610908576040517f08c379a00000000000000000000000000000000000000000000000000000000081526004016108ff90612d0e565b60405180910390fd5b6109138383836114d3565b505050565b600061092383610c63565b8210610964576040517f08c379a000000000000000000000000000000000000000000000000000000000815260040161095b90612da0565b60405180910390fd5b600660008473ffffffffffffffffffffffffffffffffffffffff1673ffffffffffffffffffffffffffffffffffffffff168152602001908152602001600020600083815260200190815260200160002054905092915050565b6109c56117cc565b3373ffffffffffffffffffffffffffffffffffffffff166108fc479081150290604051600060405180830381858888f19350505050610a0357600080fd5b565b610a2083838360405180602001604052806000815250610e00565b505050565b60606000610a3283610c63565b905060008167ffffffffffffffff811115610a5057610a4f61292a565b5b604051908082528060200260200182016040528015610a7e5781602001602082028036833780820191505090505b50905060005b82811015610ac857610a968582610918565b828281518110610aa957610aa8612dc0565b5b6020026020010181815250508080610ac090612e1e565b915050610a84565b508092505050919050565b6000610add6108ab565b8210610b1e576040517f08c379a0000000000000000000000000000000000000000000000000000000008152600401610b1590612ed8565b60405180910390fd5b60088281548110610b3257610b31612dc0565b5b90600052602060002001549050919050565b600080610b508361184a565b9050600073ffffffffffffffffffffffffffffffffffffffff168173ffffffffffffffffffffffffffffffffffffffff1603610bc1576040517f08c379a0000000000000000000000000000000000000000000000000000000008152600401610bb890612f44565b60405180910390fd5b80915050919050565b610bd2610d2e565b73ffffffffffffffffffffffffffffffffffffffff163373ffffffffffffffffffffffffffffffffffffffff1614610c1457600d54341015610c1357600080fd5b5b600e54610c1f6108ab565b1115610c2a57600080fd5b610c34600b6110e3565b6000610c40600b6110f9565b9050610c4c8282611887565b5050565b600f60009054906101000a900460ff1681565b60008073ffffffffffffffffffffffffffffffffffffffff168273ffffffffffffffffffffffffffffffffffffffff1603610cd3576040517f08c379a0000000000000000000000000000000000000000000000000000000008152600401610cca90612fd6565b60405180910390fd5b600360008373ffffffffffffffffffffffffffffffffffffffff1673ffffffffffffffffffffffffffffffffffffffff168152602001908152602001600020549050919050565b610d226117cc565b610d2c60006118a5565b565b6000600a60009054906101000a900473ffffffffffffffffffffffffffffffffffffffff16905090565b606060018054610d6790612b47565b80601f0160208091040260200160405190810160405280929190818152602001828054610d9390612b47565b8015610de05780601f10610db557610100808354040283529160200191610de0565b820191906000526020600020905b815481529060010190602001808311610dc357829003601f168201915b5050505050905090565b610dfc610df561137d565b838361196b565b5050565b610e11610e0b61137d565b8361143e565b610e50576040517f08c379a0000000000000000000000000000000000000000000000000000000008152600401610e4790612d0e565b60405180910390fd5b610e5c84848484611ad7565b50505050565b6060610e6d82611b33565b610eac576040517f08c379a0000000000000000000000000000000000000000000000000000000008152600401610ea390613068565b60405180910390fd5b600c8054610eb990612b47565b80601f0160208091040260200160405190810160405280929190818152602001828054610ee590612b47565b8015610f325780601f10610f0757610100808354040283529160200191610f32565b820191906000526020600020905b815481529060010190602001808311610f1557829003601f168201915b50505050509050919050565b600c8054610f4b90612b47565b80601f0160208091040260200160405190810160405280929190818152602001828054610f7790612b47565b8015610fc45780601f10610f9957610100808354040283529160200191610fc4565b820191906000526020600020905b815481529060010190602001808311610fa757829003601f168201915b505050505081565b6000600560008473ffffffffffffffffffffffffffffffffffffffff1673ffffffffffffffffffffffffffffffffffffffff16815260200190815260200160002060008373ffffffffffffffffffffffffffffffffffffffff1673ffffffffffffffffffffffffffffffffffffffff16815260200190815260200160002060009054906101000a900460ff16905092915050565b6110686117cc565b600073ffffffffffffffffffffffffffffffffffffffff168173ffffffffffffffffffffffffffffffffffffffff16036110d7576040517f08c379a00000000000000000000000000000000000000000000000000000000081526004016110ce906130fa565b60405180910390fd5b6110e0816118a5565b50565b6001816000016000828254019250508190555050565b600081600001549050919050565b6000808273ffffffffffffffffffffffffffffffffffffffff163b119050919050565b600181111561124a57600073ffffffffffffffffffffffffffffffffffffffff168473ffffffffffffffffffffffffffffffffffffffff16146111be5780600360008673ffffffffffffffffffffffffffffffffffffffff1673ffffffffffffffffffffffffffffffffffffffff16815260200190815260200160002060008282546111b6919061311a565b925050819055505b600073ffffffffffffffffffffffffffffffffffffffff168373ffffffffffffffffffffffffffffffffffffffff16146112495780600360008573ffffffffffffffffffffffffffffffffffffffff1673ffffffffffffffffffffffffffffffffffffffff1681526020019081526020016000206000828254611241919061314e565b925050819055505b5b50505050565b60007f80ac58cd000000000000000000000000000000000000000000000000000000007bffffffffffffffffffffffffffffffffffffffffffffffffffffffff1916827bffffffffffffffffffffffffffffffffffffffffffffffffffffffff1916148061131b57507f5b5e139f000000000000000000000000000000000000000000000000000000007bffffffffffffffffffffffffffffffffffffffffffffffffffffffff1916827bffffffffffffffffffffffffffffffffffffffffffffffffffffffff1916145b8061132b575061132a82611b74565b5b9050919050565b61133b81611b33565b61137a576040517f08c379a000000000000000000000000000000000000000000000000000000000815260040161137190612f44565b60405180910390fd5b50565b600033905090565b816004600083815260200190815260200160002060006101000a81548173ffffffffffffffffffffffffffffffffffffffff021916908373ffffffffffffffffffffffffffffffffffffffff160217905550808273ffffffffffffffffffffffffffffffffffffffff166113f883610b44565b73ffffffffffffffffffffffffffffffffffffffff167f8c5be1e5ebec7d5bd14f71427d1e84f3dd0314c0f7b2291e5b200ac8c7c3b92560405160405180910390a45050565b60008061144a83610b44565b90508073ffffffffffffffffffffffffffffffffffffffff168473ffffffffffffffffffffffffffffffffffffffff16148061148c575061148b8185610fcc565b5b806114ca57508373ffffffffffffffffffffffffffffffffffffffff166114b284610742565b73ffffffffffffffffffffffffffffffffffffffff16145b91505092915050565b8273ffffffffffffffffffffffffffffffffffffffff166114f382610b44565b73ffffffffffffffffffffffffffffffffffffffff1614611549576040517f08c379a0000000000000000000000000000000000000000000000000000000008152600401611540906131f4565b60405180910390fd5b600073ffffffffffffffffffffffffffffffffffffffff168273ffffffffffffffffffffffffffffffffffffffff16036115b8576040517f08c379a00000000000000000000000000000000000000000000000000000000081526004016115af90613286565b60405180910390fd5b6115c58383836001611bde565b8273ffffffffffffffffffffffffffffffffffffffff166115e582610b44565b73ffffffffffffffffffffffffffffffffffffffff161461163b576040517f08c379a0000000000000000000000000000000000000000000000000000000008152600401611632906131f4565b60405180910390fd5b6004600082815260200190815260200160002060006101000a81549073ffffffffffffffffffffffffffffffffffffffff02191690556001600360008573ffffffffffffffffffffffffffffffffffffffff1673ffffffffffffffffffffffffffffffffffffffff168152602001908152602001600020600082825403925050819055506001600360008473ffffffffffffffffffffffffffffffffffffffff1673ffffffffffffffffffffffffffffffffffffffff16815260200190815260200160002060008282540192505081905550816002600083815260200190815260200160002060006101000a81548173ffffffffffffffffffffffffffffffffffffffff021916908373ffffffffffffffffffffffffffffffffffffffff160217905550808273ffffffffffffffffffffffffffffffffffffffff168473ffffffffffffffffffffffffffffffffffffffff167fddf252ad1be2c89b69c2b068fc378daa952ba7f163c4a11628f55a4df523b3ef60405160405180910390a46117c78383836001611d3c565b505050565b6117d461137d565b73ffffffffffffffffffffffffffffffffffffffff166117f2610d2e565b73ffffffffffffffffffffffffffffffffffffffff1614611848576040517f08c379a000000000000000000000000000000000000000000000000000000000815260040161183f906132f2565b60405180910390fd5b565b60006002600083815260200190815260200160002060009054906101000a900473ffffffffffffffffffffffffffffffffffffffff169050919050565b6118a1828260405180602001604052806000815250611d42565b5050565b6000600a60009054906101000a900473ffffffffffffffffffffffffffffffffffffffff16905081600a60006101000a81548173ffffffffffffffffffffffffffffffffffffffff021916908373ffffffffffffffffffffffffffffffffffffffff1602179055508173ffffffffffffffffffffffffffffffffffffffff168173ffffffffffffffffffffffffffffffffffffffff167f8be0079c531659141344cd1fd0a4f28419497f9722a3daafe3b4186f6b6457e060405160405180910390a35050565b8173ffffffffffffffffffffffffffffffffffffffff168373ffffffffffffffffffffffffffffffffffffffff16036119d9576040517f08c379a00000000000000000000000000000000000000000000000000000000081526004016119d09061335e565b60405180910390fd5b80600560008573ffffffffffffffffffffffffffffffffffffffff1673ffffffffffffffffffffffffffffffffffffffff16815260200190815260200160002060008473ffffffffffffffffffffffffffffffffffffffff1673ffffffffffffffffffffffffffffffffffffffff16815260200190815260200160002060006101000a81548160ff0219169083151502179055508173ffffffffffffffffffffffffffffffffffffffff168373ffffffffffffffffffffffffffffffffffffffff167f17307eab39ab6107e8899845ad3d59bd9653f200f220920489ca2b5937696c3183604051611aca91906124fb565b60405180910390a3505050565b611ae28484846114d3565b611aee84848484611d9d565b611b2d576040517f08c379a0000000000000000000000000000000000000000000000000000000008152600401611b24906133f0565b60405180910390fd5b50505050565b60008073ffffffffffffffffffffffffffffffffffffffff16611b558361184a565b73ffffffffffffffffffffffffffffffffffffffff1614159050919050565b60007f01ffc9a7000000000000000000000000000000000000000000000000000000007bffffffffffffffffffffffffffffffffffffffffffffffffffffffff1916827bffffffffffffffffffffffffffffffffffffffffffffffffffffffff1916149050919050565b611bea8484848461112a565b6001811115611c2e576040517f08c379a0000000000000000000000000000000000000000000000000000000008152600401611c2590613482565b60405180910390fd5b6000829050600073ffffffffffffffffffffffffffffffffffffffff168573ffffffffffffffffffffffffffffffffffffffff1603611c7557611c7081611f24565b611cb4565b8373ffffffffffffffffffffffffffffffffffffffff168573ffffffffffffffffffffffffffffffffffffffff1614611cb357611cb28582611f6d565b5b5b600073ffffffffffffffffffffffffffffffffffffffff168473ffffffffffffffffffffffffffffffffffffffff1603611cf657611cf1816120da565b611d35565b8473ffffffffffffffffffffffffffffffffffffffff168473ffffffffffffffffffffffffffffffffffffffff1614611d3457611d3384826121ab565b5b5b5050505050565b50505050565b611d4c838361222a565b611d596000848484611d9d565b611d98576040517f08c379a0000000000000000000000000000000000000000000000000000000008152600401611d8f906133f0565b60405180910390fd5b505050565b6000611dbe8473ffffffffffffffffffffffffffffffffffffffff16611107565b15611f17578373ffffffffffffffffffffffffffffffffffffffff1663150b7a02611de761137d565b8786866040518563ffffffff1660e01b8152600401611e0994939291906134f7565b6020604051808303816000875af1925050508015611e4557506040513d601f19601f82011682018060405250810190611e429190613558565b60015b611ec7573d8060008114611e75576040519150601f19603f3d011682016040523d82523d6000602084013e611e7a565b606091505b506000815103611ebf576040517f08c379a0000000000000000000000000000000000000000000000000000000008152600401611eb6906133f0565b60405180910390fd5b805181602001fd5b63150b7a0260e01b7bffffffffffffffffffffffffffffffffffffffffffffffffffffffff1916817bffffffffffffffffffffffffffffffffffffffffffffffffffffffff191614915050611f1c565b600190505b949350505050565b6008805490506009600083815260200190815260200160002081905550600881908060018154018082558091505060019003906000526020600020016000909190919091505550565b60006001611f7a84610c63565b611f84919061311a565b9050600060076000848152602001908152602001600020549050818114612069576000600660008673ffffffffffffffffffffffffffffffffffffffff1673ffffffffffffffffffffffffffffffffffffffff168152602001908152602001600020600084815260200190815260200160002054905080600660008773ffffffffffffffffffffffffffffffffffffffff1673ffffffffffffffffffffffffffffffffffffffff168152602001908152602001600020600084815260200190815260200160002081905550816007600083815260200190815260200160002081905550505b6007600084815260200190815260200160002060009055600660008573ffffffffffffffffffffffffffffffffffffffff1673ffffffffffffffffffffffffffffffffffffffff16815260200190815260200160002060008381526020019081526020016000206000905550505050565b600060016008805490506120ee919061311a565b905060006009600084815260200190815260200160002054905060006008838154811061211e5761211d612dc0565b5b9060005260206000200154905080600883815481106121405761213f612dc0565b5b90600052602060002001819055508160096000838152602001908152602001600020819055506009600085815260200190815260200160002060009055600880548061218f5761218e613585565b5b6001900381819060005260206000200160009055905550505050565b60006121b683610c63565b905081600660008573ffffffffffffffffffffffffffffffffffffffff1673ffffffffffffffffffffffffffffffffffffffff168152602001908152602001600020600083815260200190815260200160002081905550806007600084815260200190815260200160002081905550505050565b600073ffffffffffffffffffffffffffffffffffffffff168273ffffffffffffffffffffffffffffffffffffffff1603612299576040517f08c379a000000000000000000000000000000000000000000000000000000000815260040161229090613600565b60405180910390fd5b6122a281611b33565b156122e2576040517f08c379a00000000000000000000000000000000000000000000000000000000081526004016122d99061366c565b60405180910390fd5b6122f0600083836001611bde565b6122f981611b33565b15612339576040517f08c379a00000000000000000000000000000000000000000000000000000000081526004016123309061366c565b60405180910390fd5b6001600360008473ffffffffffffffffffffffffffffffffffffffff1673ffffffffffffffffffffffffffffffffffffffff16815260200190815260200160002060008282540192505081905550816002600083815260200190815260200160002060006101000a81548173ffffffffffffffffffffffffffffffffffffffff021916908373ffffffffffffffffffffffffffffffffffffffff160217905550808273ffffffffffffffffffffffffffffffffffffffff16600073ffffffffffffffffffffffffffffffffffffffff167fddf252ad1be2c89b69c2b068fc378daa952ba7f163c4a11628f55a4df523b3ef60405160405180910390a4612443600083836001611d3c565b5050565b6000604051905090565b600080fd5b600080fd5b60007fffffffff0000000000000000000000000000000000000000000000000000000082169050919050565b6124908161245b565b811461249b57600080fd5b50565b6000813590506124ad81612487565b92915050565b6000602082840312156124c9576124c8612451565b5b60006124d78482850161249e565b91505092915050565b60008115159050919050565b6124f5816124e0565b82525050565b600060208201905061251060008301846124ec565b92915050565b600081519050919050565b600082825260208201905092915050565b60005b83811015612550578082015181840152602081019050612535565b60008484015250505050565b6000601f19601f8301169050919050565b600061257882612516565b6125828185612521565b9350612592818560208601612532565b61259b8161255c565b840191505092915050565b600060208201905081810360008301526125c0818461256d565b905092915050565b6000819050919050565b6125db816125c8565b81146125e657600080fd5b50565b6000813590506125f8816125d2565b92915050565b60006020828403121561261457612613612451565b5b6000612622848285016125e9565b91505092915050565b600073ffffffffffffffffffffffffffffffffffffffff82169050919050565b60006126568261262b565b9050919050565b6126668161264b565b82525050565b6000602082019050612681600083018461265d565b92915050565b6126908161264b565b811461269b57600080fd5b50565b6000813590506126ad81612687565b92915050565b600080604083850312156126ca576126c9612451565b5b60006126d88582860161269e565b92505060206126e9858286016125e9565b9150509250929050565b6126fc816125c8565b82525050565b600060208201905061271760008301846126f3565b92915050565b60008060006060848603121561273657612735612451565b5b60006127448682870161269e565b93505060206127558682870161269e565b9250506040612766868287016125e9565b9150509250925092565b60006020828403121561278657612785612451565b5b60006127948482850161269e565b91505092915050565b600081519050919050565b600082825260208201905092915050565b6000819050602082019050919050565b6127d2816125c8565b82525050565b60006127e483836127c9565b60208301905092915050565b6000602082019050919050565b60006128088261279d565b61281281856127a8565b935061281d836127b9565b8060005b8381101561284e57815161283588826127d8565b9750612840836127f0565b925050600181019050612821565b5085935050505092915050565b6000602082019050818103600083015261287581846127fd565b905092915050565b600060ff82169050919050565b6128938161287d565b82525050565b60006020820190506128ae600083018461288a565b92915050565b6128bd816124e0565b81146128c857600080fd5b50565b6000813590506128da816128b4565b92915050565b600080604083850312156128f7576128f6612451565b5b60006129058582860161269e565b9250506020612916858286016128cb565b9150509250929050565b600080fd5b600080fd5b7f4e487b7100000000000000000000000000000000000000000000000000000000600052604160045260246000fd5b6129628261255c565b810181811067ffffffffffffffff821117156129815761298061292a565b5b80604052505050565b6000612994612447565b90506129a08282612959565b919050565b600067ffffffffffffffff8211156129c0576129bf61292a565b5b6129c98261255c565b9050602081019050919050565b82818337600083830152505050565b60006129f86129f3846129a5565b61298a565b905082815260208101848484011115612a1457612a13612925565b5b612a1f8482856129d6565b509392505050565b600082601f830112612a3c57612a3b612920565b5b8135612a4c8482602086016129e5565b91505092915050565b60008060008060808587031215612a6f57612a6e612451565b5b6000612a7d8782880161269e565b9450506020612a8e8782880161269e565b9350506040612a9f878288016125e9565b925050606085013567ffffffffffffffff811115612ac057612abf612456565b5b612acc87828801612a27565b91505092959194509250565b60008060408385031215612aef57612aee612451565b5b6000612afd8582860161269e565b9250506020612b0e8582860161269e565b9150509250929050565b7f4e487b7100000000000000000000000000000000000000000000000000000000600052602260045260246000fd5b60006002820490506001821680612b5f57607f821691505b602082108103612b7257612b71612b18565b5b50919050565b7f4552433732313a20617070726f76616c20746f2063757272656e74206f776e6560008201527f7200000000000000000000000000000000000000000000000000000000000000602082015250565b6000612bd4602183612521565b9150612bdf82612b78565b604082019050919050565b60006020820190508181036000830152612c0381612bc7565b9050919050565b7f4552433732313a20617070726f76652063616c6c6572206973206e6f7420746f60008201527f6b656e206f776e6572206f7220617070726f76656420666f7220616c6c000000602082015250565b6000612c66603d83612521565b9150612c7182612c0a565b604082019050919050565b60006020820190508181036000830152612c9581612c59565b9050919050565b7f4552433732313a2063616c6c6572206973206e6f7420746f6b656e206f776e6560008201527f72206f7220617070726f76656400000000000000000000000000000000000000602082015250565b6000612cf8602d83612521565b9150612d0382612c9c565b604082019050919050565b60006020820190508181036000830152612d2781612ceb565b9050919050565b7f455243373231456e756d657261626c653a206f776e657220696e646578206f7560008201527f74206f6620626f756e6473000000000000000000000000000000000000000000602082015250565b6000612d8a602b83612521565b9150612d9582612d2e565b604082019050919050565b60006020820190508181036000830152612db981612d7d565b9050919050565b7f4e487b7100000000000000000000000000000000000000000000000000000000600052603260045260246000fd5b7f4e487b7100000000000000000000000000000000000000000000000000000000600052601160045260246000fd5b6000612e29826125c8565b91507fffffffffffffffffffffffffffffffffffffffffffffffffffffffffffffffff8203612e5b57612e5a612def565b5b600182019050919050565b7f455243373231456e756d657261626c653a20676c6f62616c20696e646578206f60008201527f7574206f6620626f756e64730000000000000000000000000000000000000000602082015250565b6000612ec2602c83612521565b9150612ecd82612e66565b604082019050919050565b60006020820190508181036000830152612ef181612eb5565b9050919050565b7f4552433732313a20696e76616c696420746f6b656e2049440000000000000000600082015250565b6000612f2e601883612521565b9150612f3982612ef8565b602082019050919050565b60006020820190508181036000830152612f5d81612f21565b9050919050565b7f4552433732313a2061646472657373207a65726f206973206e6f74206120766160008201527f6c6964206f776e65720000000000000000000000000000000000000000000000602082015250565b6000612fc0602983612521565b9150612fcb82612f64565b604082019050919050565b60006020820190508181036000830152612fef81612fb3565b9050919050565b7f4552433732314d657461646174613a2055524920717565727920666f72206e6f60008201527f6e6578697374656e7420746f6b656e0000000000000000000000000000000000602082015250565b6000613052602f83612521565b915061305d82612ff6565b604082019050919050565b6000602082019050818103600083015261308181613045565b9050919050565b7f4f776e61626c653a206e6577206f776e657220697320746865207a65726f206160008201527f6464726573730000000000000000000000000000000000000000000000000000602082015250565b60006130e4602683612521565b91506130ef82613088565b604082019050919050565b60006020820190508181036000830152613113816130d7565b9050919050565b6000613125826125c8565b9150613130836125c8565b925082820390508181111561314857613147612def565b5b92915050565b6000613159826125c8565b9150613164836125c8565b925082820190508082111561317c5761317b612def565b5b92915050565b7f4552433732313a207472616e736665722066726f6d20696e636f72726563742060008201527f6f776e6572000000000000000000000000000000000000000000000000000000602082015250565b60006131de602583612521565b91506131e982613182565b604082019050919050565b6000602082019050818103600083015261320d816131d1565b9050919050565b7f4552433732313a207472616e7366657220746f20746865207a65726f2061646460008201527f7265737300000000000000000000000000000000000000000000000000000000602082015250565b6000613270602483612521565b915061327b82613214565b604082019050919050565b6000602082019050818103600083015261329f81613263565b9050919050565b7f4f776e61626c653a2063616c6c6572206973206e6f7420746865206f776e6572600082015250565b60006132dc602083612521565b91506132e7826132a6565b602082019050919050565b6000602082019050818103600083015261330b816132cf565b9050919050565b7f4552433732313a20617070726f766520746f2063616c6c657200000000000000600082015250565b6000613348601983612521565b915061335382613312565b602082019050919050565b600060208201905081810360008301526133778161333b565b9050919050565b7f4552433732313a207472616e7366657220746f206e6f6e20455243373231526560008201527f63656976657220696d706c656d656e7465720000000000000000000000000000602082015250565b60006133da603283612521565b91506133e58261337e565b604082019050919050565b60006020820190508181036000830152613409816133cd565b9050919050565b7f455243373231456e756d657261626c653a20636f6e736563757469766520747260008201527f616e7366657273206e6f7420737570706f727465640000000000000000000000602082015250565b600061346c603583612521565b915061347782613410565b604082019050919050565b6000602082019050818103600083015261349b8161345f565b9050919050565b600081519050919050565b600082825260208201905092915050565b60006134c9826134a2565b6134d381856134ad565b93506134e3818560208601612532565b6134ec8161255c565b840191505092915050565b600060808201905061350c600083018761265d565b613519602083018661265d565b61352660408301856126f3565b818103606083015261353881846134be565b905095945050505050565b60008151905061355281612487565b92915050565b60006020828403121561356e5761356d612451565b5b600061357c84828501613543565b91505092915050565b7f4e487b7100000000000000000000000000000000000000000000000000000000600052603160045260246000fd5b7f4552433732313a206d696e7420746f20746865207a65726f2061646472657373600082015250565b60006135ea602083612521565b91506135f5826135b4565b602082019050919050565b60006020820190508181036000830152613619816135dd565b9050919050565b7f4552433732313a20746f6b656e20616c7265616479206d696e74656400000000600082015250565b6000613656601c83612521565b915061366182613620565b602082019050919050565b6000602082019050818103600083015261368581613649565b905091905056fea26469706673582212203fc235c8772174f0c0c99210b3d2931e34af50ea88110a73d830fd750bb510ac64736f6c63430008110033",
  "linkReferences": {},
  "deployedLinkReferences": {}
}