{
  "_format": "hh-sol-artifact-1",
  "contractName": "Ticket",
  "sourceName": "contracts/PrivilegeCard.sol",
  "abi": [
    {
      "inputs": [
        {
          "internalType": "string",
          "name": "_name",
          "type": "string"
        },
        {
          "internalType": "string",
          "name": "_symbol",
          "type": "string"
        },
        {
          "internalType": "string",
          "name": "_tokenURI",
          "type": "string"
        },
        {
          "internalType": "uint256",
          "name": "_cost",
          "type": "uint256"
        },
        {
          "internalType": "uint256",
          "name": "_quantity",
          "type": "uint256"
        },
        {
          "internalType": "uint8",
          "name": "_discount",
          "type": "uint8"
        }
      ],
      "stateMutability": "nonpayable",
      "type": "constructor"
    },
    {
      "anonymous": false,
      "inputs": [
        {
          "indexed": true,
          "internalType": "address",
          "name": "owner",
          "type": "address"
        },
        {
          "indexed": true,
          "internalType": "address",
          "name": "approved",
          "type": "address"
        },
        {
          "indexed": true,
          "internalType": "uint256",
          "name": "tokenId",
          "type": "uint256"
        }
      ],
      "name": "Approval",
      "type": "event"
    },
    {
      "anonymous": false,
      "inputs": [
        {
          "indexed": true,
          "internalType": "address",
          "name": "owner",
          "type": "address"
        },
        {
          "indexed": true,
          "internalType": "address",
          "name": "operator",
          "type": "address"
        },
        {
          "indexed": false,
          "internalType": "bool",
          "name": "approved",
          "type": "bool"
        }
      ],
      "name": "ApprovalForAll",
      "type": "event"
    },
    {
      "anonymous": false,
      "inputs": [
        {
          "indexed": true,
          "internalType": "address",
          "name": "previousOwner",
          "type": "address"
        },
        {
          "indexed": true,
          "internalType": "address",
          "name": "newOwner",
          "type": "address"
        }
      ],
      "name": "OwnershipTransferred",
      "type": "event"
    },
    {
      "anonymous": false,
      "inputs": [
        {
          "indexed": true,
          "internalType": "address",
          "name": "from",
          "type": "address"
        },
        {
          "indexed": true,
          "internalType": "address",
          "name": "to",
          "type": "address"
        },
        {
          "indexed": true,
          "internalType": "uint256",
          "name": "tokenId",
          "type": "uint256"
        }
      ],
      "name": "Transfer",
      "type": "event"
    },
    {
      "inputs": [
        {
          "internalType": "address",
          "name": "to",
          "type": "address"
        },
        {
          "internalType": "uint256",
          "name": "tokenId",
          "type": "uint256"
        }
      ],
      "name": "approve",
      "outputs": [],
      "stateMutability": "nonpayable",
      "type": "function"
    },
    {
      "inputs": [
        {
          "internalType": "address",
          "name": "owner",
          "type": "address"
        }
      ],
      "name": "balanceOf",
      "outputs": [
        {
          "internalType": "uint256",
          "name": "",
          "type": "uint256"
        }
      ],
      "stateMutability": "view",
      "type": "function"
    },
    {
      "inputs": [],
      "name": "baseTokenURI",
      "outputs": [
        {
          "internalType": "string",
          "name": "",
          "type": "string"
        }
      ],
      "stateMutability": "view",
      "type": "function"
    },
    {
      "inputs": [],
      "name": "cost",
      "outputs": [
        {
          "internalType": "uint256",
          "name": "",
          "type": "uint256"
        }
      ],
      "stateMutability": "view",
      "type": "function"
    },
    {
      "inputs": [],
      "name": "discount",
      "outputs": [
        {
          "internalType": "uint8",
          "name": "",
          "type": "uint8"
        }
      ],
      "stateMutability": "view",
      "type": "function"
    },
    {
      "inputs": [
        {
          "internalType": "uint256",
          "name": "tokenId",
          "type": "uint256"
        }
      ],
      "name": "getApproved",
      "outputs": [
        {
          "internalType": "address",
          "name": "",
          "type": "address"
        }
      ],
      "stateMutability": "view",
      "type": "function"
    },
    {
      "inputs": [
        {
          "internalType": "address",
          "name": "owner",
          "type": "address"
        },
        {
          "internalType": "address",
          "name": "operator",
          "type": "address"
        }
      ],
      "name": "isApprovedForAll",
      "outputs": [
        {
          "internalType": "bool",
          "name": "",
          "type": "bool"
        }
      ],
      "stateMutability": "view",
      "type": "function"
    },
    {
      "inputs": [
        {
          "internalType": "address",
          "name": "_to",
          "type": "address"
        }
      ],
      "name": "mint",
      "outputs": [],
      "stateMutability": "payable",
      "type": "function"
    },
    {
      "inputs": [],
      "name": "name",
      "outputs": [
        {
          "internalType": "string",
          "name": "",
          "type": "string"
        }
      ],
      "stateMutability": "view",
      "type": "function"
    },
    {
      "inputs": [],
      "name": "owner",
      "outputs": [
        {
          "internalType": "address",
          "name": "",
          "type": "address"
        }
      ],
      "stateMutability": "view",
      "type": "function"
    },
    {
      "inputs": [
        {
          "internalType": "uint256",
          "name": "tokenId",
          "type": "uint256"
        }
      ],
      "name": "ownerOf",
      "outputs": [
        {
          "internalType": "address",
          "name": "",
          "type": "address"
        }
      ],
      "stateMutability": "view",
      "type": "function"
    },
    {
      "inputs": [],
      "name": "quantity",
      "outputs": [
        {
          "internalType": "uint256",
          "name": "",
          "type": "uint256"
        }
      ],
      "stateMutability": "view",
      "type": "function"
    },
    {
      "inputs": [],
      "name": "renounceOwnership",
      "outputs": [],
      "stateMutability": "nonpayable",
      "type": "function"
    },
    {
      "inputs": [
        {
          "internalType": "address",
          "name": "from",
          "type": "address"
        },
        {
          "internalType": "address",
          "name": "to",
          "type": "address"
        },
        {
          "internalType": "uint256",
          "name": "tokenId",
          "type": "uint256"
        }
      ],
      "name": "safeTransferFrom",
      "outputs": [],
      "stateMutability": "nonpayable",
      "type": "function"
    },
    {
      "inputs": [
        {
          "internalType": "address",
          "name": "from",
          "type": "address"
        },
        {
          "internalType": "address",
          "name": "to",
          "type": "address"
        },
        {
          "internalType": "uint256",
          "name": "tokenId",
          "type": "uint256"
        },
        {
          "internalType": "bytes",
          "name": "data",
          "type": "bytes"
        }
      ],
      "name": "safeTransferFrom",
      "outputs": [],
      "stateMutability": "nonpayable",
      "type": "function"
    },
    {
      "inputs": [
        {
          "internalType": "address",
          "name": "operator",
          "type": "address"
        },
        {
          "internalType": "bool",
          "name": "approved",
          "type": "bool"
        }
      ],
      "name": "setApprovalForAll",
      "outputs": [],
      "stateMutability": "nonpayable",
      "type": "function"
    },
    {
      "inputs": [
        {
          "internalType": "bytes4",
          "name": "interfaceId",
          "type": "bytes4"
        }
      ],
      "name": "supportsInterface",
      "outputs": [
        {
          "internalType": "bool",
          "name": "",
          "type": "bool"
        }
      ],
      "stateMutability": "view",
      "type": "function"
    },
    {
      "inputs": [],
      "name": "symbol",
      "outputs": [
        {
          "internalType": "string",
          "name": "",
          "type": "string"
        }
      ],
      "stateMutability": "view",
      "type": "function"
    },
    {
      "inputs": [
        {
          "internalType": "uint256",
          "name": "index",
          "type": "uint256"
        }
      ],
      "name": "tokenByIndex",
      "outputs": [
        {
          "internalType": "uint256",
          "name": "",
          "type": "uint256"
        }
      ],
      "stateMutability": "view",
      "type": "function"
    },
    {
      "inputs": [
        {
          "internalType": "address",
          "name": "owner",
          "type": "address"
        },
        {
          "internalType": "uint256",
          "name": "index",
          "type": "uint256"
        }
      ],
      "name": "tokenOfOwnerByIndex",
      "outputs": [
        {
          "internalType": "uint256",
          "name": "",
          "type": "uint256"
        }
      ],
      "stateMutability": "view",
      "type": "function"
    },
    {
      "inputs": [
        {
          "internalType": "uint256",
          "name": "tokenId",
          "type": "uint256"
        }
      ],
      "name": "tokenURI",
      "outputs": [
        {
          "internalType": "string",
          "name": "",
          "type": "string"
        }
      ],
      "stateMutability": "view",
      "type": "function"
    },
    {
      "inputs": [],
      "name": "totalSupply",
      "outputs": [
        {
          "internalType": "uint256",
          "name": "",
          "type": "uint256"
        }
      ],
      "stateMutability": "view",
      "type": "function"
    },
    {
      "inputs": [
        {
          "internalType": "address",
          "name": "from",
          "type": "address"
        },
        {
          "internalType": "address",
          "name": "to",
          "type": "address"
        },
        {
          "internalType": "uint256",
          "name": "tokenId",
          "type": "uint256"
        }
      ],
      "name": "transferFrom",
      "outputs": [],
      "stateMutability": "nonpayable",
      "type": "function"
    },
    {
      "inputs": [
        {
          "internalType": "address",
          "name": "newOwner",
          "type": "address"
        }
      ],
      "name": "transferOwnership",
      "outputs": [],
      "stateMutability": "nonpayable",
      "type": "function"
    },
    {
      "inputs": [
        {
          "internalType": "address",
          "name": "_owner",
          "type": "address"
        }
      ],
      "name": "walletOfOwner",
      "outputs": [
        {
          "internalType": "uint256[]",
          "name": "",
          "type": "uint256[]"
        }
      ],
      "stateMutability": "view",
      "type": "function"
    },
    {
      "inputs": [],
      "name": "withdraw",
      "outputs": [],
      "stateMutability": "payable",
      "type": "function"
    }
  ],
  "bytecode": "0x60806040523480156200001157600080fd5b5060405162003f5b38038062003f5b8339818101604052810190620000379190620003fa565b858581600090816200004a919062000734565b5080600190816200005c919062000734565b5050506200007f620000736200012060201b60201c565b6200012860201b60201c565b60008160ff1610158062000097575060648160ff1611155b620000d9576040517f08c379a0000000000000000000000000000000000000000000000000000000008152600401620000d090620008a2565b60405180910390fd5b83600c9081620000ea919062000734565b5082600d8190555081600e8190555080600f60006101000a81548160ff021916908360ff160217905550505050505050620008c4565b600033905090565b6000600a60009054906101000a900473ffffffffffffffffffffffffffffffffffffffff16905081600a60006101000a81548173ffffffffffffffffffffffffffffffffffffffff021916908373ffffffffffffffffffffffffffffffffffffffff1602179055508173ffffffffffffffffffffffffffffffffffffffff168173ffffffffffffffffffffffffffffffffffffffff167f8be0079c531659141344cd1fd0a4f28419497f9722a3daafe3b4186f6b6457e060405160405180910390a35050565b6000604051905090565b600080fd5b600080fd5b600080fd5b600080fd5b6000601f19601f8301169050919050565b7f4e487b7100000000000000000000000000000000000000000000000000000000600052604160045260246000fd5b62000257826200020c565b810181811067ffffffffffffffff821117156200027957620002786200021d565b5b80604052505050565b60006200028e620001ee565b90506200029c82826200024c565b919050565b600067ffffffffffffffff821115620002bf57620002be6200021d565b5b620002ca826200020c565b9050602081019050919050565b60005b83811015620002f7578082015181840152602081019050620002da565b60008484015250505050565b60006200031a6200031484620002a1565b62000282565b90508281526020810184848401111562000339576200033862000207565b5b62000346848285620002d7565b509392505050565b600082601f83011262000366576200036562000202565b5b81516200037884826020860162000303565b91505092915050565b6000819050919050565b620003968162000381565b8114620003a257600080fd5b50565b600081519050620003b6816200038b565b92915050565b600060ff82169050919050565b620003d481620003bc565b8114620003e057600080fd5b50565b600081519050620003f481620003c9565b92915050565b60008060008060008060c087890312156200041a5762000419620001f8565b5b600087015167ffffffffffffffff8111156200043b576200043a620001fd565b5b6200044989828a016200034e565b965050602087015167ffffffffffffffff8111156200046d576200046c620001fd565b5b6200047b89828a016200034e565b955050604087015167ffffffffffffffff8111156200049f576200049e620001fd565b5b620004ad89828a016200034e565b9450506060620004c089828a01620003a5565b9350506080620004d389828a01620003a5565b92505060a0620004e689828a01620003e3565b9150509295509295509295565b600081519050919050565b7f4e487b7100000000000000000000000000000000000000000000000000000000600052602260045260246000fd5b600060028204905060018216806200054657607f821691505b6020821081036200055c576200055b620004fe565b5b50919050565b60008190508160005260206000209050919050565b60006020601f8301049050919050565b600082821b905092915050565b600060088302620005c67fffffffffffffffffffffffffffffffffffffffffffffffffffffffffffffffff8262000587565b620005d2868362000587565b95508019841693508086168417925050509392505050565b6000819050919050565b6000620006156200060f620006098462000381565b620005ea565b62000381565b9050919050565b6000819050919050565b6200063183620005f4565b6200064962000640826200061c565b84845462000594565b825550505050565b600090565b6200066062000651565b6200066d81848462000626565b505050565b5b8181101562000695576200068960008262000656565b60018101905062000673565b5050565b601f821115620006e457620006ae8162000562565b620006b98462000577565b81016020851015620006c9578190505b620006e1620006d88562000577565b83018262000672565b50505b505050565b600082821c905092915050565b60006200070960001984600802620006e9565b1980831691505092915050565b6000620007248383620006f6565b9150826002028217905092915050565b6200073f82620004f3565b67ffffffffffffffff8111156200075b576200075a6200021d565b5b6200076782546200052d565b6200077482828562000699565b600060209050601f831160018114620007ac576000841562000797578287015190505b620007a3858262000716565b86555062000813565b601f198416620007bc8662000562565b60005b82811015620007e657848901518255600182019150602085019450602081019050620007bf565b8683101562000806578489015162000802601f891682620006f6565b8355505b6001600288020188555050505b505050505050565b600082825260208201905092915050565b7f54686520646973636f756e74206d757374206265206265747765656e2030206160008201527f6e64203130302028696e636c7573697665290000000000000000000000000000602082015250565b60006200088a6032836200081b565b915062000897826200082c565b604082019050919050565b60006020820190508181036000830152620008bd816200087b565b9050919050565b61368780620008d46000396000f3fe6080604052600436106101815760003560e01c80636352211e116100d157806395d89b411161008a578063c87b56dd11610064578063c87b56dd14610568578063d547cfb7146105a5578063e985e9c5146105d0578063f2fde38b1461060d57610181565b806395d89b41146104eb578063a22cb46514610516578063b88d4fde1461053f57610181565b80636352211e146103e85780636a627842146104255780636b6f4a9d1461044157806370a082311461046c578063715018a6146104a95780638da5cb5b146104c057610181565b806318160ddd1161013e5780633ccfd60b116101185780633ccfd60b1461033b57806342842e0e14610345578063438b63001461036e5780634f6ccce7146103ab57610181565b806318160ddd146102aa57806323b872dd146102d55780632f745c59146102fe57610181565b806301ffc9a71461018657806306fdde03146101c3578063081812fc146101ee578063095ea7b31461022b57806313faede61461025457806317fc45e21461027f575b600080fd5b34801561019257600080fd5b506101ad60048036038101906101a89190612478565b610636565b6040516101ba91906124c0565b60405180910390f35b3480156101cf57600080fd5b506101d86106b0565b6040516101e5919061256b565b60405180910390f35b3480156101fa57600080fd5b50610215600480360381019061021091906125c3565b610742565b6040516102229190612631565b60405180910390f35b34801561023757600080fd5b50610252600480360381019061024d9190612678565b610788565b005b34801561026057600080fd5b5061026961089f565b60405161027691906126c7565b60405180910390f35b34801561028b57600080fd5b506102946108a5565b6040516102a191906126c7565b60405180910390f35b3480156102b657600080fd5b506102bf6108ab565b6040516102cc91906126c7565b60405180910390f35b3480156102e157600080fd5b506102fc60048036038101906102f791906126e2565b6108b8565b005b34801561030a57600080fd5b5061032560048036038101906103209190612678565b610918565b60405161033291906126c7565b60405180910390f35b6103436109bd565b005b34801561035157600080fd5b5061036c600480360381019061036791906126e2565b610a05565b005b34801561037a57600080fd5b5061039560048036038101906103909190612735565b610a25565b6040516103a29190612820565b60405180910390f35b3480156103b757600080fd5b506103d260048036038101906103cd91906125c3565b610ad3565b6040516103df91906126c7565b60405180910390f35b3480156103f457600080fd5b5061040f600480360381019061040a91906125c3565b610b44565b60405161041c9190612631565b60405180910390f35b61043f600480360381019061043a9190612735565b610bca565b005b34801561044d57600080fd5b50610456610c15565b604051610463919061285e565b60405180910390f35b34801561047857600080fd5b50610493600480360381019061048e9190612735565b610c28565b6040516104a091906126c7565b60405180910390f35b3480156104b557600080fd5b506104be610cdf565b005b3480156104cc57600080fd5b506104d5610cf3565b6040516104e29190612631565b60405180910390f35b3480156104f757600080fd5b50610500610d1d565b60405161050d919061256b565b60405180910390f35b34801561052257600080fd5b5061053d600480360381019061053891906128a5565b610daf565b005b34801561054b57600080fd5b5061056660048036038101906105619190612a1a565b610dc5565b005b34801561057457600080fd5b5061058f600480360381019061058a91906125c3565b610e27565b60405161059c919061256b565b60405180910390f35b3480156105b157600080fd5b506105ba610f03565b6040516105c7919061256b565b60405180910390f35b3480156105dc57600080fd5b506105f760048036038101906105f29190612a9d565b610f91565b60405161060491906124c0565b60405180910390f35b34801561061957600080fd5b50610634600480360381019061062f9190612735565b611025565b005b60007f780e9d63000000000000000000000000000000000000000000000000000000007bffffffffffffffffffffffffffffffffffffffffffffffffffffffff1916827bffffffffffffffffffffffffffffffffffffffffffffffffffffffff191614806106a957506106a8826110a8565b5b9050919050565b6060600080546106bf90612b0c565b80601f01602080910402602001604051908101604052809291908181526020018280546106eb90612b0c565b80156107385780601f1061070d57610100808354040283529160200191610738565b820191906000526020600020905b81548152906001019060200180831161071b57829003601f168201915b5050505050905090565b600061074d8261118a565b6004600083815260200190815260200160002060009054906101000a900473ffffffffffffffffffffffffffffffffffffffff169050919050565b600061079382610b44565b90508073ffffffffffffffffffffffffffffffffffffffff168373ffffffffffffffffffffffffffffffffffffffff1603610803576040517f08c379a00000000000000000000000000000000000000000000000000000000081526004016107fa90612baf565b60405180910390fd5b8073ffffffffffffffffffffffffffffffffffffffff166108226111d5565b73ffffffffffffffffffffffffffffffffffffffff16148061085157506108508161084b6111d5565b610f91565b5b610890576040517f08c379a000000000000000000000000000000000000000000000000000000000815260040161088790612c41565b60405180910390fd5b61089a83836111dd565b505050565b600d5481565b600e5481565b6000600880549050905090565b6108c96108c36111d5565b82611296565b610908576040517f08c379a00000000000000000000000000000000000000000000000000000000081526004016108ff90612cd3565b60405180910390fd5b61091383838361132b565b505050565b600061092383610c28565b8210610964576040517f08c379a000000000000000000000000000000000000000000000000000000000815260040161095b90612d65565b60405180910390fd5b600660008473ffffffffffffffffffffffffffffffffffffffff1673ffffffffffffffffffffffffffffffffffffffff168152602001908152602001600020600083815260200190815260200160002054905092915050565b6109c5611624565b3373ffffffffffffffffffffffffffffffffffffffff166108fc479081150290604051600060405180830381858888f19350505050610a0357600080fd5b565b610a2083838360405180602001604052806000815250610dc5565b505050565b60606000610a3283610c28565b905060008167ffffffffffffffff811115610a5057610a4f6128ef565b5b604051908082528060200260200182016040528015610a7e5781602001602082028036833780820191505090505b50905060005b82811015610ac857610a968582610918565b828281518110610aa957610aa8612d85565b5b6020026020010181815250508080610ac090612de3565b915050610a84565b508092505050919050565b6000610add6108ab565b8210610b1e576040517f08c379a0000000000000000000000000000000000000000000000000000000008152600401610b1590612e9d565b60405180910390fd5b60088281548110610b3257610b31612d85565b5b90600052602060002001549050919050565b600080610b50836116a2565b9050600073ffffffffffffffffffffffffffffffffffffffff168173ffffffffffffffffffffffffffffffffffffffff1603610bc1576040517f08c379a0000000000000000000000000000000000000000000000000000000008152600401610bb890612f09565b60405180910390fd5b80915050919050565b600d54341015610bd957600080fd5b600e54610be46108ab565b1115610bef57600080fd5b610bf9600b6116df565b6000610c05600b6116f5565b9050610c118282611703565b5050565b600f60009054906101000a900460ff1681565b60008073ffffffffffffffffffffffffffffffffffffffff168273ffffffffffffffffffffffffffffffffffffffff1603610c98576040517f08c379a0000000000000000000000000000000000000000000000000000000008152600401610c8f90612f9b565b60405180910390fd5b600360008373ffffffffffffffffffffffffffffffffffffffff1673ffffffffffffffffffffffffffffffffffffffff168152602001908152602001600020549050919050565b610ce7611624565b610cf16000611721565b565b6000600a60009054906101000a900473ffffffffffffffffffffffffffffffffffffffff16905090565b606060018054610d2c90612b0c565b80601f0160208091040260200160405190810160405280929190818152602001828054610d5890612b0c565b8015610da55780601f10610d7a57610100808354040283529160200191610da5565b820191906000526020600020905b815481529060010190602001808311610d8857829003601f168201915b5050505050905090565b610dc1610dba6111d5565b83836117e7565b5050565b610dd6610dd06111d5565b83611296565b610e15576040517f08c379a0000000000000000000000000000000000000000000000000000000008152600401610e0c90612cd3565b60405180910390fd5b610e2184848484611953565b50505050565b6060610e32826119af565b610e71576040517f08c379a0000000000000000000000000000000000000000000000000000000008152600401610e689061302d565b60405180910390fd5b600c8054610e7e90612b0c565b80601f0160208091040260200160405190810160405280929190818152602001828054610eaa90612b0c565b8015610ef75780601f10610ecc57610100808354040283529160200191610ef7565b820191906000526020600020905b815481529060010190602001808311610eda57829003601f168201915b50505050509050919050565b600c8054610f1090612b0c565b80601f0160208091040260200160405190810160405280929190818152602001828054610f3c90612b0c565b8015610f895780601f10610f5e57610100808354040283529160200191610f89565b820191906000526020600020905b815481529060010190602001808311610f6c57829003601f168201915b505050505081565b6000600560008473ffffffffffffffffffffffffffffffffffffffff1673ffffffffffffffffffffffffffffffffffffffff16815260200190815260200160002060008373ffffffffffffffffffffffffffffffffffffffff1673ffffffffffffffffffffffffffffffffffffffff16815260200190815260200160002060009054906101000a900460ff16905092915050565b61102d611624565b600073ffffffffffffffffffffffffffffffffffffffff168173ffffffffffffffffffffffffffffffffffffffff160361109c576040517f08c379a0000000000000000000000000000000000000000000000000000000008152600401611093906130bf565b60405180910390fd5b6110a581611721565b50565b60007f80ac58cd000000000000000000000000000000000000000000000000000000007bffffffffffffffffffffffffffffffffffffffffffffffffffffffff1916827bffffffffffffffffffffffffffffffffffffffffffffffffffffffff1916148061117357507f5b5e139f000000000000000000000000000000000000000000000000000000007bffffffffffffffffffffffffffffffffffffffffffffffffffffffff1916827bffffffffffffffffffffffffffffffffffffffffffffffffffffffff1916145b806111835750611182826119f0565b5b9050919050565b611193816119af565b6111d2576040517f08c379a00000000000000000000000000000000000000000000000000000000081526004016111c990612f09565b60405180910390fd5b50565b600033905090565b816004600083815260200190815260200160002060006101000a81548173ffffffffffffffffffffffffffffffffffffffff021916908373ffffffffffffffffffffffffffffffffffffffff160217905550808273ffffffffffffffffffffffffffffffffffffffff1661125083610b44565b73ffffffffffffffffffffffffffffffffffffffff167f8c5be1e5ebec7d5bd14f71427d1e84f3dd0314c0f7b2291e5b200ac8c7c3b92560405160405180910390a45050565b6000806112a283610b44565b90508073ffffffffffffffffffffffffffffffffffffffff168473ffffffffffffffffffffffffffffffffffffffff1614806112e457506112e38185610f91565b5b8061132257508373ffffffffffffffffffffffffffffffffffffffff1661130a84610742565b73ffffffffffffffffffffffffffffffffffffffff16145b91505092915050565b8273ffffffffffffffffffffffffffffffffffffffff1661134b82610b44565b73ffffffffffffffffffffffffffffffffffffffff16146113a1576040517f08c379a000000000000000000000000000000000000000000000000000000000815260040161139890613151565b60405180910390fd5b600073ffffffffffffffffffffffffffffffffffffffff168273ffffffffffffffffffffffffffffffffffffffff1603611410576040517f08c379a0000000000000000000000000000000000000000000000000000000008152600401611407906131e3565b60405180910390fd5b61141d8383836001611a5a565b8273ffffffffffffffffffffffffffffffffffffffff1661143d82610b44565b73ffffffffffffffffffffffffffffffffffffffff1614611493576040517f08c379a000000000000000000000000000000000000000000000000000000000815260040161148a90613151565b60405180910390fd5b6004600082815260200190815260200160002060006101000a81549073ffffffffffffffffffffffffffffffffffffffff02191690556001600360008573ffffffffffffffffffffffffffffffffffffffff1673ffffffffffffffffffffffffffffffffffffffff168152602001908152602001600020600082825403925050819055506001600360008473ffffffffffffffffffffffffffffffffffffffff1673ffffffffffffffffffffffffffffffffffffffff16815260200190815260200160002060008282540192505081905550816002600083815260200190815260200160002060006101000a81548173ffffffffffffffffffffffffffffffffffffffff021916908373ffffffffffffffffffffffffffffffffffffffff160217905550808273ffffffffffffffffffffffffffffffffffffffff168473ffffffffffffffffffffffffffffffffffffffff167fddf252ad1be2c89b69c2b068fc378daa952ba7f163c4a11628f55a4df523b3ef60405160405180910390a461161f8383836001611bb8565b505050565b61162c6111d5565b73ffffffffffffffffffffffffffffffffffffffff1661164a610cf3565b73ffffffffffffffffffffffffffffffffffffffff16146116a0576040517f08c379a00000000000000000000000000000000000000000000000000000000081526004016116979061324f565b60405180910390fd5b565b60006002600083815260200190815260200160002060009054906101000a900473ffffffffffffffffffffffffffffffffffffffff169050919050565b6001816000016000828254019250508190555050565b600081600001549050919050565b61171d828260405180602001604052806000815250611bbe565b5050565b6000600a60009054906101000a900473ffffffffffffffffffffffffffffffffffffffff16905081600a60006101000a81548173ffffffffffffffffffffffffffffffffffffffff021916908373ffffffffffffffffffffffffffffffffffffffff1602179055508173ffffffffffffffffffffffffffffffffffffffff168173ffffffffffffffffffffffffffffffffffffffff167f8be0079c531659141344cd1fd0a4f28419497f9722a3daafe3b4186f6b6457e060405160405180910390a35050565b8173ffffffffffffffffffffffffffffffffffffffff168373ffffffffffffffffffffffffffffffffffffffff1603611855576040517f08c379a000000000000000000000000000000000000000000000000000000000815260040161184c906132bb565b60405180910390fd5b80600560008573ffffffffffffffffffffffffffffffffffffffff1673ffffffffffffffffffffffffffffffffffffffff16815260200190815260200160002060008473ffffffffffffffffffffffffffffffffffffffff1673ffffffffffffffffffffffffffffffffffffffff16815260200190815260200160002060006101000a81548160ff0219169083151502179055508173ffffffffffffffffffffffffffffffffffffffff168373ffffffffffffffffffffffffffffffffffffffff167f17307eab39ab6107e8899845ad3d59bd9653f200f220920489ca2b5937696c318360405161194691906124c0565b60405180910390a3505050565b61195e84848461132b565b61196a84848484611c19565b6119a9576040517f08c379a00000000000000000000000000000000000000000000000000000000081526004016119a09061334d565b60405180910390fd5b50505050565b60008073ffffffffffffffffffffffffffffffffffffffff166119d1836116a2565b73ffffffffffffffffffffffffffffffffffffffff1614159050919050565b60007f01ffc9a7000000000000000000000000000000000000000000000000000000007bffffffffffffffffffffffffffffffffffffffffffffffffffffffff1916827bffffffffffffffffffffffffffffffffffffffffffffffffffffffff1916149050919050565b611a6684848484611da0565b6001811115611aaa576040517f08c379a0000000000000000000000000000000000000000000000000000000008152600401611aa1906133df565b60405180910390fd5b6000829050600073ffffffffffffffffffffffffffffffffffffffff168573ffffffffffffffffffffffffffffffffffffffff1603611af157611aec81611ec6565b611b30565b8373ffffffffffffffffffffffffffffffffffffffff168573ffffffffffffffffffffffffffffffffffffffff1614611b2f57611b2e8582611f0f565b5b5b600073ffffffffffffffffffffffffffffffffffffffff168473ffffffffffffffffffffffffffffffffffffffff1603611b7257611b6d8161207c565b611bb1565b8473ffffffffffffffffffffffffffffffffffffffff168473ffffffffffffffffffffffffffffffffffffffff1614611bb057611baf848261214d565b5b5b5050505050565b50505050565b611bc883836121cc565b611bd56000848484611c19565b611c14576040517f08c379a0000000000000000000000000000000000000000000000000000000008152600401611c0b9061334d565b60405180910390fd5b505050565b6000611c3a8473ffffffffffffffffffffffffffffffffffffffff166123e9565b15611d93578373ffffffffffffffffffffffffffffffffffffffff1663150b7a02611c636111d5565b8786866040518563ffffffff1660e01b8152600401611c859493929190613454565b6020604051808303816000875af1925050508015611cc157506040513d601f19601f82011682018060405250810190611cbe91906134b5565b60015b611d43573d8060008114611cf1576040519150601f19603f3d011682016040523d82523d6000602084013e611cf6565b606091505b506000815103611d3b576040517f08c379a0000000000000000000000000000000000000000000000000000000008152600401611d329061334d565b60405180910390fd5b805181602001fd5b63150b7a0260e01b7bffffffffffffffffffffffffffffffffffffffffffffffffffffffff1916817bffffffffffffffffffffffffffffffffffffffffffffffffffffffff191614915050611d98565b600190505b949350505050565b6001811115611ec057600073ffffffffffffffffffffffffffffffffffffffff168473ffffffffffffffffffffffffffffffffffffffff1614611e345780600360008673ffffffffffffffffffffffffffffffffffffffff1673ffffffffffffffffffffffffffffffffffffffff1681526020019081526020016000206000828254611e2c91906134e2565b925050819055505b600073ffffffffffffffffffffffffffffffffffffffff168373ffffffffffffffffffffffffffffffffffffffff1614611ebf5780600360008573ffffffffffffffffffffffffffffffffffffffff1673ffffffffffffffffffffffffffffffffffffffff1681526020019081526020016000206000828254611eb79190613516565b925050819055505b5b50505050565b6008805490506009600083815260200190815260200160002081905550600881908060018154018082558091505060019003906000526020600020016000909190919091505550565b60006001611f1c84610c28565b611f2691906134e2565b905060006007600084815260200190815260200160002054905081811461200b576000600660008673ffffffffffffffffffffffffffffffffffffffff1673ffffffffffffffffffffffffffffffffffffffff168152602001908152602001600020600084815260200190815260200160002054905080600660008773ffffffffffffffffffffffffffffffffffffffff1673ffffffffffffffffffffffffffffffffffffffff168152602001908152602001600020600084815260200190815260200160002081905550816007600083815260200190815260200160002081905550505b6007600084815260200190815260200160002060009055600660008573ffffffffffffffffffffffffffffffffffffffff1673ffffffffffffffffffffffffffffffffffffffff16815260200190815260200160002060008381526020019081526020016000206000905550505050565b6000600160088054905061209091906134e2565b90506000600960008481526020019081526020016000205490506000600883815481106120c0576120bf612d85565b5b9060005260206000200154905080600883815481106120e2576120e1612d85565b5b9060005260206000200181905550816009600083815260200190815260200160002081905550600960008581526020019081526020016000206000905560088054806121315761213061354a565b5b6001900381819060005260206000200160009055905550505050565b600061215883610c28565b905081600660008573ffffffffffffffffffffffffffffffffffffffff1673ffffffffffffffffffffffffffffffffffffffff168152602001908152602001600020600083815260200190815260200160002081905550806007600084815260200190815260200160002081905550505050565b600073ffffffffffffffffffffffffffffffffffffffff168273ffffffffffffffffffffffffffffffffffffffff160361223b576040517f08c379a0000000000000000000000000000000000000000000000000000000008152600401612232906135c5565b60405180910390fd5b612244816119af565b15612284576040517f08c379a000000000000000000000000000000000000000000000000000000000815260040161227b90613631565b60405180910390fd5b612292600083836001611a5a565b61229b816119af565b156122db576040517f08c379a00000000000000000000000000000000000000000000000000000000081526004016122d290613631565b60405180910390fd5b6001600360008473ffffffffffffffffffffffffffffffffffffffff1673ffffffffffffffffffffffffffffffffffffffff16815260200190815260200160002060008282540192505081905550816002600083815260200190815260200160002060006101000a81548173ffffffffffffffffffffffffffffffffffffffff021916908373ffffffffffffffffffffffffffffffffffffffff160217905550808273ffffffffffffffffffffffffffffffffffffffff16600073ffffffffffffffffffffffffffffffffffffffff167fddf252ad1be2c89b69c2b068fc378daa952ba7f163c4a11628f55a4df523b3ef60405160405180910390a46123e5600083836001611bb8565b5050565b6000808273ffffffffffffffffffffffffffffffffffffffff163b119050919050565b6000604051905090565b600080fd5b600080fd5b60007fffffffff0000000000000000000000000000000000000000000000000000000082169050919050565b61245581612420565b811461246057600080fd5b50565b6000813590506124728161244c565b92915050565b60006020828403121561248e5761248d612416565b5b600061249c84828501612463565b91505092915050565b60008115159050919050565b6124ba816124a5565b82525050565b60006020820190506124d560008301846124b1565b92915050565b600081519050919050565b600082825260208201905092915050565b60005b838110156125155780820151818401526020810190506124fa565b60008484015250505050565b6000601f19601f8301169050919050565b600061253d826124db565b61254781856124e6565b93506125578185602086016124f7565b61256081612521565b840191505092915050565b600060208201905081810360008301526125858184612532565b905092915050565b6000819050919050565b6125a08161258d565b81146125ab57600080fd5b50565b6000813590506125bd81612597565b92915050565b6000602082840312156125d9576125d8612416565b5b60006125e7848285016125ae565b91505092915050565b600073ffffffffffffffffffffffffffffffffffffffff82169050919050565b600061261b826125f0565b9050919050565b61262b81612610565b82525050565b60006020820190506126466000830184612622565b92915050565b61265581612610565b811461266057600080fd5b50565b6000813590506126728161264c565b92915050565b6000806040838503121561268f5761268e612416565b5b600061269d85828601612663565b92505060206126ae858286016125ae565b9150509250929050565b6126c18161258d565b82525050565b60006020820190506126dc60008301846126b8565b92915050565b6000806000606084860312156126fb576126fa612416565b5b600061270986828701612663565b935050602061271a86828701612663565b925050604061272b868287016125ae565b9150509250925092565b60006020828403121561274b5761274a612416565b5b600061275984828501612663565b91505092915050565b600081519050919050565b600082825260208201905092915050565b6000819050602082019050919050565b6127978161258d565b82525050565b60006127a9838361278e565b60208301905092915050565b6000602082019050919050565b60006127cd82612762565b6127d7818561276d565b93506127e28361277e565b8060005b838110156128135781516127fa888261279d565b9750612805836127b5565b9250506001810190506127e6565b5085935050505092915050565b6000602082019050818103600083015261283a81846127c2565b905092915050565b600060ff82169050919050565b61285881612842565b82525050565b6000602082019050612873600083018461284f565b92915050565b612882816124a5565b811461288d57600080fd5b50565b60008135905061289f81612879565b92915050565b600080604083850312156128bc576128bb612416565b5b60006128ca85828601612663565b92505060206128db85828601612890565b9150509250929050565b600080fd5b600080fd5b7f4e487b7100000000000000000000000000000000000000000000000000000000600052604160045260246000fd5b61292782612521565b810181811067ffffffffffffffff82111715612946576129456128ef565b5b80604052505050565b600061295961240c565b9050612965828261291e565b919050565b600067ffffffffffffffff821115612985576129846128ef565b5b61298e82612521565b9050602081019050919050565b82818337600083830152505050565b60006129bd6129b88461296a565b61294f565b9050828152602081018484840111156129d9576129d86128ea565b5b6129e484828561299b565b509392505050565b600082601f830112612a0157612a006128e5565b5b8135612a118482602086016129aa565b91505092915050565b60008060008060808587031215612a3457612a33612416565b5b6000612a4287828801612663565b9450506020612a5387828801612663565b9350506040612a64878288016125ae565b925050606085013567ffffffffffffffff811115612a8557612a8461241b565b5b612a91878288016129ec565b91505092959194509250565b60008060408385031215612ab457612ab3612416565b5b6000612ac285828601612663565b9250506020612ad385828601612663565b9150509250929050565b7f4e487b7100000000000000000000000000000000000000000000000000000000600052602260045260246000fd5b60006002820490506001821680612b2457607f821691505b602082108103612b3757612b36612add565b5b50919050565b7f4552433732313a20617070726f76616c20746f2063757272656e74206f776e6560008201527f7200000000000000000000000000000000000000000000000000000000000000602082015250565b6000612b996021836124e6565b9150612ba482612b3d565b604082019050919050565b60006020820190508181036000830152612bc881612b8c565b9050919050565b7f4552433732313a20617070726f76652063616c6c6572206973206e6f7420746f60008201527f6b656e206f776e6572206f7220617070726f76656420666f7220616c6c000000602082015250565b6000612c2b603d836124e6565b9150612c3682612bcf565b604082019050919050565b60006020820190508181036000830152612c5a81612c1e565b9050919050565b7f4552433732313a2063616c6c6572206973206e6f7420746f6b656e206f776e6560008201527f72206f7220617070726f76656400000000000000000000000000000000000000602082015250565b6000612cbd602d836124e6565b9150612cc882612c61565b604082019050919050565b60006020820190508181036000830152612cec81612cb0565b9050919050565b7f455243373231456e756d657261626c653a206f776e657220696e646578206f7560008201527f74206f6620626f756e6473000000000000000000000000000000000000000000602082015250565b6000612d4f602b836124e6565b9150612d5a82612cf3565b604082019050919050565b60006020820190508181036000830152612d7e81612d42565b9050919050565b7f4e487b7100000000000000000000000000000000000000000000000000000000600052603260045260246000fd5b7f4e487b7100000000000000000000000000000000000000000000000000000000600052601160045260246000fd5b6000612dee8261258d565b91507fffffffffffffffffffffffffffffffffffffffffffffffffffffffffffffffff8203612e2057612e1f612db4565b5b600182019050919050565b7f455243373231456e756d657261626c653a20676c6f62616c20696e646578206f60008201527f7574206f6620626f756e64730000000000000000000000000000000000000000602082015250565b6000612e87602c836124e6565b9150612e9282612e2b565b604082019050919050565b60006020820190508181036000830152612eb681612e7a565b9050919050565b7f4552433732313a20696e76616c696420746f6b656e2049440000000000000000600082015250565b6000612ef36018836124e6565b9150612efe82612ebd565b602082019050919050565b60006020820190508181036000830152612f2281612ee6565b9050919050565b7f4552433732313a2061646472657373207a65726f206973206e6f74206120766160008201527f6c6964206f776e65720000000000000000000000000000000000000000000000602082015250565b6000612f856029836124e6565b9150612f9082612f29565b604082019050919050565b60006020820190508181036000830152612fb481612f78565b9050919050565b7f4552433732314d657461646174613a2055524920717565727920666f72206e6f60008201527f6e6578697374656e7420746f6b656e0000000000000000000000000000000000602082015250565b6000613017602f836124e6565b915061302282612fbb565b604082019050919050565b600060208201905081810360008301526130468161300a565b9050919050565b7f4f776e61626c653a206e6577206f776e657220697320746865207a65726f206160008201527f6464726573730000000000000000000000000000000000000000000000000000602082015250565b60006130a96026836124e6565b91506130b48261304d565b604082019050919050565b600060208201905081810360008301526130d88161309c565b9050919050565b7f4552433732313a207472616e736665722066726f6d20696e636f72726563742060008201527f6f776e6572000000000000000000000000000000000000000000000000000000602082015250565b600061313b6025836124e6565b9150613146826130df565b604082019050919050565b6000602082019050818103600083015261316a8161312e565b9050919050565b7f4552433732313a207472616e7366657220746f20746865207a65726f2061646460008201527f7265737300000000000000000000000000000000000000000000000000000000602082015250565b60006131cd6024836124e6565b91506131d882613171565b604082019050919050565b600060208201905081810360008301526131fc816131c0565b9050919050565b7f4f776e61626c653a2063616c6c6572206973206e6f7420746865206f776e6572600082015250565b60006132396020836124e6565b915061324482613203565b602082019050919050565b600060208201905081810360008301526132688161322c565b9050919050565b7f4552433732313a20617070726f766520746f2063616c6c657200000000000000600082015250565b60006132a56019836124e6565b91506132b08261326f565b602082019050919050565b600060208201905081810360008301526132d481613298565b9050919050565b7f4552433732313a207472616e7366657220746f206e6f6e20455243373231526560008201527f63656976657220696d706c656d656e7465720000000000000000000000000000602082015250565b60006133376032836124e6565b9150613342826132db565b604082019050919050565b600060208201905081810360008301526133668161332a565b9050919050565b7f455243373231456e756d657261626c653a20636f6e736563757469766520747260008201527f616e7366657273206e6f7420737570706f727465640000000000000000000000602082015250565b60006133c96035836124e6565b91506133d48261336d565b604082019050919050565b600060208201905081810360008301526133f8816133bc565b9050919050565b600081519050919050565b600082825260208201905092915050565b6000613426826133ff565b613430818561340a565b93506134408185602086016124f7565b61344981612521565b840191505092915050565b60006080820190506134696000830187612622565b6134766020830186612622565b61348360408301856126b8565b8181036060830152613495818461341b565b905095945050505050565b6000815190506134af8161244c565b92915050565b6000602082840312156134cb576134ca612416565b5b60006134d9848285016134a0565b91505092915050565b60006134ed8261258d565b91506134f88361258d565b92508282039050818111156135105761350f612db4565b5b92915050565b60006135218261258d565b915061352c8361258d565b925082820190508082111561354457613543612db4565b5b92915050565b7f4e487b7100000000000000000000000000000000000000000000000000000000600052603160045260246000fd5b7f4552433732313a206d696e7420746f20746865207a65726f2061646472657373600082015250565b60006135af6020836124e6565b91506135ba82613579565b602082019050919050565b600060208201905081810360008301526135de816135a2565b9050919050565b7f4552433732313a20746f6b656e20616c7265616479206d696e74656400000000600082015250565b600061361b601c836124e6565b9150613626826135e5565b602082019050919050565b6000602082019050818103600083015261364a8161360e565b905091905056fea264697066735822122057520b9c62c4ca79834bb8c681116b0b7234c77184cde07b8e0d8772ce93469d64736f6c63430008110033",
  "linkReferences": {},
  "deployedLinkReferences": {}
}