{
  "_format": "hh-sol-artifact-1",
  "contractName": "BusTicket",
  "sourceName": "contracts/BusTicket.sol",
  "abi": [
    {
      "inputs": [
        {
          "internalType": "string",
          "name": "_name",
          "type": "string"
        },
        {
          "internalType": "string",
          "name": "_symbol",
          "type": "string"
        },
        {
          "internalType": "string",
          "name": "_tokenURI",
          "type": "string"
        }
      ],
      "stateMutability": "nonpayable",
      "type": "constructor"
    },
    {
      "anonymous": false,
      "inputs": [
        {
          "indexed": true,
          "internalType": "address",
          "name": "owner",
          "type": "address"
        },
        {
          "indexed": true,
          "internalType": "address",
          "name": "approved",
          "type": "address"
        },
        {
          "indexed": true,
          "internalType": "uint256",
          "name": "tokenId",
          "type": "uint256"
        }
      ],
      "name": "Approval",
      "type": "event"
    },
    {
      "anonymous": false,
      "inputs": [
        {
          "indexed": true,
          "internalType": "address",
          "name": "owner",
          "type": "address"
        },
        {
          "indexed": true,
          "internalType": "address",
          "name": "operator",
          "type": "address"
        },
        {
          "indexed": false,
          "internalType": "bool",
          "name": "approved",
          "type": "bool"
        }
      ],
      "name": "ApprovalForAll",
      "type": "event"
    },
    {
      "anonymous": false,
      "inputs": [
        {
          "indexed": true,
          "internalType": "address",
          "name": "previousOwner",
          "type": "address"
        },
        {
          "indexed": true,
          "internalType": "address",
          "name": "newOwner",
          "type": "address"
        }
      ],
      "name": "OwnershipTransferred",
      "type": "event"
    },
    {
      "anonymous": false,
      "inputs": [
        {
          "indexed": true,
          "internalType": "address",
          "name": "from",
          "type": "address"
        },
        {
          "indexed": true,
          "internalType": "address",
          "name": "to",
          "type": "address"
        },
        {
          "indexed": true,
          "internalType": "uint256",
          "name": "tokenId",
          "type": "uint256"
        }
      ],
      "name": "Transfer",
      "type": "event"
    },
    {
      "inputs": [
        {
          "internalType": "address",
          "name": "to",
          "type": "address"
        },
        {
          "internalType": "uint256",
          "name": "tokenId",
          "type": "uint256"
        }
      ],
      "name": "approve",
      "outputs": [],
      "stateMutability": "nonpayable",
      "type": "function"
    },
    {
      "inputs": [
        {
          "internalType": "address",
          "name": "owner",
          "type": "address"
        }
      ],
      "name": "balanceOf",
      "outputs": [
        {
          "internalType": "uint256",
          "name": "",
          "type": "uint256"
        }
      ],
      "stateMutability": "view",
      "type": "function"
    },
    {
      "inputs": [],
      "name": "baseTokenURI",
      "outputs": [
        {
          "internalType": "string",
          "name": "",
          "type": "string"
        }
      ],
      "stateMutability": "view",
      "type": "function"
    },
    {
      "inputs": [],
      "name": "cost",
      "outputs": [
        {
          "internalType": "uint256",
          "name": "",
          "type": "uint256"
        }
      ],
      "stateMutability": "view",
      "type": "function"
    },
    {
      "inputs": [
        {
          "internalType": "uint256",
          "name": "tokenId",
          "type": "uint256"
        }
      ],
      "name": "getApproved",
      "outputs": [
        {
          "internalType": "address",
          "name": "",
          "type": "address"
        }
      ],
      "stateMutability": "view",
      "type": "function"
    },
    {
      "inputs": [
        {
          "internalType": "address",
          "name": "owner",
          "type": "address"
        },
        {
          "internalType": "address",
          "name": "operator",
          "type": "address"
        }
      ],
      "name": "isApprovedForAll",
      "outputs": [
        {
          "internalType": "bool",
          "name": "",
          "type": "bool"
        }
      ],
      "stateMutability": "view",
      "type": "function"
    },
    {
      "inputs": [
        {
          "internalType": "address",
          "name": "_to",
          "type": "address"
        }
      ],
      "name": "mint",
      "outputs": [],
      "stateMutability": "payable",
      "type": "function"
    },
    {
      "inputs": [],
      "name": "name",
      "outputs": [
        {
          "internalType": "string",
          "name": "",
          "type": "string"
        }
      ],
      "stateMutability": "view",
      "type": "function"
    },
    {
      "inputs": [],
      "name": "owner",
      "outputs": [
        {
          "internalType": "address",
          "name": "",
          "type": "address"
        }
      ],
      "stateMutability": "view",
      "type": "function"
    },
    {
      "inputs": [
        {
          "internalType": "uint256",
          "name": "tokenId",
          "type": "uint256"
        }
      ],
      "name": "ownerOf",
      "outputs": [
        {
          "internalType": "address",
          "name": "",
          "type": "address"
        }
      ],
      "stateMutability": "view",
      "type": "function"
    },
    {
      "inputs": [],
      "name": "renounceOwnership",
      "outputs": [],
      "stateMutability": "nonpayable",
      "type": "function"
    },
    {
      "inputs": [
        {
          "internalType": "address",
          "name": "from",
          "type": "address"
        },
        {
          "internalType": "address",
          "name": "to",
          "type": "address"
        },
        {
          "internalType": "uint256",
          "name": "tokenId",
          "type": "uint256"
        }
      ],
      "name": "safeTransferFrom",
      "outputs": [],
      "stateMutability": "nonpayable",
      "type": "function"
    },
    {
      "inputs": [
        {
          "internalType": "address",
          "name": "from",
          "type": "address"
        },
        {
          "internalType": "address",
          "name": "to",
          "type": "address"
        },
        {
          "internalType": "uint256",
          "name": "tokenId",
          "type": "uint256"
        },
        {
          "internalType": "bytes",
          "name": "data",
          "type": "bytes"
        }
      ],
      "name": "safeTransferFrom",
      "outputs": [],
      "stateMutability": "nonpayable",
      "type": "function"
    },
    {
      "inputs": [
        {
          "internalType": "address",
          "name": "operator",
          "type": "address"
        },
        {
          "internalType": "bool",
          "name": "approved",
          "type": "bool"
        }
      ],
      "name": "setApprovalForAll",
      "outputs": [],
      "stateMutability": "nonpayable",
      "type": "function"
    },
    {
      "inputs": [
        {
          "internalType": "bytes4",
          "name": "interfaceId",
          "type": "bytes4"
        }
      ],
      "name": "supportsInterface",
      "outputs": [
        {
          "internalType": "bool",
          "name": "",
          "type": "bool"
        }
      ],
      "stateMutability": "view",
      "type": "function"
    },
    {
      "inputs": [],
      "name": "symbol",
      "outputs": [
        {
          "internalType": "string",
          "name": "",
          "type": "string"
        }
      ],
      "stateMutability": "view",
      "type": "function"
    },
    {
      "inputs": [
        {
          "internalType": "uint256",
          "name": "index",
          "type": "uint256"
        }
      ],
      "name": "tokenByIndex",
      "outputs": [
        {
          "internalType": "uint256",
          "name": "",
          "type": "uint256"
        }
      ],
      "stateMutability": "view",
      "type": "function"
    },
    {
      "inputs": [
        {
          "internalType": "address",
          "name": "owner",
          "type": "address"
        },
        {
          "internalType": "uint256",
          "name": "index",
          "type": "uint256"
        }
      ],
      "name": "tokenOfOwnerByIndex",
      "outputs": [
        {
          "internalType": "uint256",
          "name": "",
          "type": "uint256"
        }
      ],
      "stateMutability": "view",
      "type": "function"
    },
    {
      "inputs": [
        {
          "internalType": "uint256",
          "name": "tokenId",
          "type": "uint256"
        }
      ],
      "name": "tokenURI",
      "outputs": [
        {
          "internalType": "string",
          "name": "",
          "type": "string"
        }
      ],
      "stateMutability": "view",
      "type": "function"
    },
    {
      "inputs": [],
      "name": "totalSupply",
      "outputs": [
        {
          "internalType": "uint256",
          "name": "",
          "type": "uint256"
        }
      ],
      "stateMutability": "view",
      "type": "function"
    },
    {
      "inputs": [
        {
          "internalType": "address",
          "name": "from",
          "type": "address"
        },
        {
          "internalType": "address",
          "name": "to",
          "type": "address"
        },
        {
          "internalType": "uint256",
          "name": "tokenId",
          "type": "uint256"
        }
      ],
      "name": "transferFrom",
      "outputs": [],
      "stateMutability": "nonpayable",
      "type": "function"
    },
    {
      "inputs": [
        {
          "internalType": "address",
          "name": "newOwner",
          "type": "address"
        }
      ],
      "name": "transferOwnership",
      "outputs": [],
      "stateMutability": "nonpayable",
      "type": "function"
    },
    {
      "inputs": [
        {
          "internalType": "address",
          "name": "_owner",
          "type": "address"
        }
      ],
      "name": "walletOfOwner",
      "outputs": [
        {
          "internalType": "uint256[]",
          "name": "",
          "type": "uint256[]"
        }
      ],
      "stateMutability": "view",
      "type": "function"
    },
    {
      "inputs": [],
      "name": "withdraw",
      "outputs": [],
      "stateMutability": "payable",
      "type": "function"
    }
  ],
  "bytecode": "0x608060405267016345785d8a0000600d553480156200001d57600080fd5b5060405162003c9738038062003c97833981810160405281019062000043919062000307565b828281600090816200005691906200060b565b5080600190816200006891906200060b565b5050506200008b6200007f620000a660201b60201c565b620000ae60201b60201c565b80600c90816200009c91906200060b565b50505050620006f2565b600033905090565b6000600a60009054906101000a900473ffffffffffffffffffffffffffffffffffffffff16905081600a60006101000a81548173ffffffffffffffffffffffffffffffffffffffff021916908373ffffffffffffffffffffffffffffffffffffffff1602179055508173ffffffffffffffffffffffffffffffffffffffff168173ffffffffffffffffffffffffffffffffffffffff167f8be0079c531659141344cd1fd0a4f28419497f9722a3daafe3b4186f6b6457e060405160405180910390a35050565b6000604051905090565b600080fd5b600080fd5b600080fd5b600080fd5b6000601f19601f8301169050919050565b7f4e487b7100000000000000000000000000000000000000000000000000000000600052604160045260246000fd5b620001dd8262000192565b810181811067ffffffffffffffff82111715620001ff57620001fe620001a3565b5b80604052505050565b60006200021462000174565b9050620002228282620001d2565b919050565b600067ffffffffffffffff821115620002455762000244620001a3565b5b620002508262000192565b9050602081019050919050565b60005b838110156200027d57808201518184015260208101905062000260565b60008484015250505050565b6000620002a06200029a8462000227565b62000208565b905082815260208101848484011115620002bf57620002be6200018d565b5b620002cc8482856200025d565b509392505050565b600082601f830112620002ec57620002eb62000188565b5b8151620002fe84826020860162000289565b91505092915050565b6000806000606084860312156200032357620003226200017e565b5b600084015167ffffffffffffffff81111562000344576200034362000183565b5b6200035286828701620002d4565b935050602084015167ffffffffffffffff81111562000376576200037562000183565b5b6200038486828701620002d4565b925050604084015167ffffffffffffffff811115620003a857620003a762000183565b5b620003b686828701620002d4565b9150509250925092565b600081519050919050565b7f4e487b7100000000000000000000000000000000000000000000000000000000600052602260045260246000fd5b600060028204905060018216806200041357607f821691505b602082108103620004295762000428620003cb565b5b50919050565b60008190508160005260206000209050919050565b60006020601f8301049050919050565b600082821b905092915050565b600060088302620004937fffffffffffffffffffffffffffffffffffffffffffffffffffffffffffffffff8262000454565b6200049f868362000454565b95508019841693508086168417925050509392505050565b6000819050919050565b6000819050919050565b6000620004ec620004e6620004e084620004b7565b620004c1565b620004b7565b9050919050565b6000819050919050565b6200050883620004cb565b620005206200051782620004f3565b84845462000461565b825550505050565b600090565b6200053762000528565b62000544818484620004fd565b505050565b5b818110156200056c57620005606000826200052d565b6001810190506200054a565b5050565b601f821115620005bb5762000585816200042f565b620005908462000444565b81016020851015620005a0578190505b620005b8620005af8562000444565b83018262000549565b50505b505050565b600082821c905092915050565b6000620005e060001984600802620005c0565b1980831691505092915050565b6000620005fb8383620005cd565b9150826002028217905092915050565b6200061682620003c0565b67ffffffffffffffff811115620006325762000631620001a3565b5b6200063e8254620003fa565b6200064b82828562000570565b600060209050601f8311600181146200068357600084156200066e578287015190505b6200067a8582620005ed565b865550620006ea565b601f19841662000693866200042f565b60005b82811015620006bd5784890151825560018201915060208501945060208101905062000696565b86831015620006dd5784890151620006d9601f891682620005cd565b8355505b6001600288020188555050505b505050505050565b61359580620007026000396000f3fe60806040526004361061014b5760003560e01c80636352211e116100b6578063a22cb4651161006f578063a22cb4651461048a578063b88d4fde146104b3578063c87b56dd146104dc578063d547cfb714610519578063e985e9c514610544578063f2fde38b146105815761014b565b80636352211e146103875780636a627842146103c457806370a08231146103e0578063715018a61461041d5780638da5cb5b1461043457806395d89b411461045f5761014b565b806323b872dd1161010857806323b872dd146102745780632f745c591461029d5780633ccfd60b146102da57806342842e0e146102e4578063438b63001461030d5780634f6ccce71461034a5761014b565b806301ffc9a71461015057806306fdde031461018d578063081812fc146101b8578063095ea7b3146101f557806313faede61461021e57806318160ddd14610249575b600080fd5b34801561015c57600080fd5b50610177600480360381019061017291906123bd565b6105aa565b6040516101849190612405565b60405180910390f35b34801561019957600080fd5b506101a2610624565b6040516101af91906124b0565b60405180910390f35b3480156101c457600080fd5b506101df60048036038101906101da9190612508565b6106b6565b6040516101ec9190612576565b60405180910390f35b34801561020157600080fd5b5061021c600480360381019061021791906125bd565b6106fc565b005b34801561022a57600080fd5b50610233610813565b604051610240919061260c565b60405180910390f35b34801561025557600080fd5b5061025e610819565b60405161026b919061260c565b60405180910390f35b34801561028057600080fd5b5061029b60048036038101906102969190612627565b610826565b005b3480156102a957600080fd5b506102c460048036038101906102bf91906125bd565b610886565b6040516102d1919061260c565b60405180910390f35b6102e261092b565b005b3480156102f057600080fd5b5061030b60048036038101906103069190612627565b610973565b005b34801561031957600080fd5b50610334600480360381019061032f919061267a565b610993565b6040516103419190612765565b60405180910390f35b34801561035657600080fd5b50610371600480360381019061036c9190612508565b610a41565b60405161037e919061260c565b60405180910390f35b34801561039357600080fd5b506103ae60048036038101906103a99190612508565b610ab2565b6040516103bb9190612576565b60405180910390f35b6103de60048036038101906103d9919061267a565b610b38565b005b3480156103ec57600080fd5b506104076004803603810190610402919061267a565b610b6d565b604051610414919061260c565b60405180910390f35b34801561042957600080fd5b50610432610c24565b005b34801561044057600080fd5b50610449610c38565b6040516104569190612576565b60405180910390f35b34801561046b57600080fd5b50610474610c62565b60405161048191906124b0565b60405180910390f35b34801561049657600080fd5b506104b160048036038101906104ac91906127b3565b610cf4565b005b3480156104bf57600080fd5b506104da60048036038101906104d59190612928565b610d0a565b005b3480156104e857600080fd5b5061050360048036038101906104fe9190612508565b610d6c565b60405161051091906124b0565b60405180910390f35b34801561052557600080fd5b5061052e610e48565b60405161053b91906124b0565b60405180910390f35b34801561055057600080fd5b5061056b600480360381019061056691906129ab565b610ed6565b6040516105789190612405565b60405180910390f35b34801561058d57600080fd5b506105a860048036038101906105a3919061267a565b610f6a565b005b60007f780e9d63000000000000000000000000000000000000000000000000000000007bffffffffffffffffffffffffffffffffffffffffffffffffffffffff1916827bffffffffffffffffffffffffffffffffffffffffffffffffffffffff1916148061061d575061061c82610fed565b5b9050919050565b60606000805461063390612a1a565b80601f016020809104026020016040519081016040528092919081815260200182805461065f90612a1a565b80156106ac5780601f10610681576101008083540402835291602001916106ac565b820191906000526020600020905b81548152906001019060200180831161068f57829003601f168201915b5050505050905090565b60006106c1826110cf565b6004600083815260200190815260200160002060009054906101000a900473ffffffffffffffffffffffffffffffffffffffff169050919050565b600061070782610ab2565b90508073ffffffffffffffffffffffffffffffffffffffff168373ffffffffffffffffffffffffffffffffffffffff1603610777576040517f08c379a000000000000000000000000000000000000000000000000000000000815260040161076e90612abd565b60405180910390fd5b8073ffffffffffffffffffffffffffffffffffffffff1661079661111a565b73ffffffffffffffffffffffffffffffffffffffff1614806107c557506107c4816107bf61111a565b610ed6565b5b610804576040517f08c379a00000000000000000000000000000000000000000000000000000000081526004016107fb90612b4f565b60405180910390fd5b61080e8383611122565b505050565b600d5481565b6000600880549050905090565b61083761083161111a565b826111db565b610876576040517f08c379a000000000000000000000000000000000000000000000000000000000815260040161086d90612be1565b60405180910390fd5b610881838383611270565b505050565b600061089183610b6d565b82106108d2576040517f08c379a00000000000000000000000000000000000000000000000000000000081526004016108c990612c73565b60405180910390fd5b600660008473ffffffffffffffffffffffffffffffffffffffff1673ffffffffffffffffffffffffffffffffffffffff168152602001908152602001600020600083815260200190815260200160002054905092915050565b610933611569565b3373ffffffffffffffffffffffffffffffffffffffff166108fc479081150290604051600060405180830381858888f1935050505061097157600080fd5b565b61098e83838360405180602001604052806000815250610d0a565b505050565b606060006109a083610b6d565b905060008167ffffffffffffffff8111156109be576109bd6127fd565b5b6040519080825280602002602001820160405280156109ec5781602001602082028036833780820191505090505b50905060005b82811015610a3657610a048582610886565b828281518110610a1757610a16612c93565b5b6020026020010181815250508080610a2e90612cf1565b9150506109f2565b508092505050919050565b6000610a4b610819565b8210610a8c576040517f08c379a0000000000000000000000000000000000000000000000000000000008152600401610a8390612dab565b60405180910390fd5b60088281548110610aa057610a9f612c93565b5b90600052602060002001549050919050565b600080610abe836115e7565b9050600073ffffffffffffffffffffffffffffffffffffffff168173ffffffffffffffffffffffffffffffffffffffff1603610b2f576040517f08c379a0000000000000000000000000000000000000000000000000000000008152600401610b2690612e17565b60405180910390fd5b80915050919050565b600d54341015610b4757600080fd5b610b51600b611624565b6000610b5d600b61163a565b9050610b698282611648565b5050565b60008073ffffffffffffffffffffffffffffffffffffffff168273ffffffffffffffffffffffffffffffffffffffff1603610bdd576040517f08c379a0000000000000000000000000000000000000000000000000000000008152600401610bd490612ea9565b60405180910390fd5b600360008373ffffffffffffffffffffffffffffffffffffffff1673ffffffffffffffffffffffffffffffffffffffff168152602001908152602001600020549050919050565b610c2c611569565b610c366000611666565b565b6000600a60009054906101000a900473ffffffffffffffffffffffffffffffffffffffff16905090565b606060018054610c7190612a1a565b80601f0160208091040260200160405190810160405280929190818152602001828054610c9d90612a1a565b8015610cea5780601f10610cbf57610100808354040283529160200191610cea565b820191906000526020600020905b815481529060010190602001808311610ccd57829003601f168201915b5050505050905090565b610d06610cff61111a565b838361172c565b5050565b610d1b610d1561111a565b836111db565b610d5a576040517f08c379a0000000000000000000000000000000000000000000000000000000008152600401610d5190612be1565b60405180910390fd5b610d6684848484611898565b50505050565b6060610d77826118f4565b610db6576040517f08c379a0000000000000000000000000000000000000000000000000000000008152600401610dad90612f3b565b60405180910390fd5b600c8054610dc390612a1a565b80601f0160208091040260200160405190810160405280929190818152602001828054610def90612a1a565b8015610e3c5780601f10610e1157610100808354040283529160200191610e3c565b820191906000526020600020905b815481529060010190602001808311610e1f57829003601f168201915b50505050509050919050565b600c8054610e5590612a1a565b80601f0160208091040260200160405190810160405280929190818152602001828054610e8190612a1a565b8015610ece5780601f10610ea357610100808354040283529160200191610ece565b820191906000526020600020905b815481529060010190602001808311610eb157829003601f168201915b505050505081565b6000600560008473ffffffffffffffffffffffffffffffffffffffff1673ffffffffffffffffffffffffffffffffffffffff16815260200190815260200160002060008373ffffffffffffffffffffffffffffffffffffffff1673ffffffffffffffffffffffffffffffffffffffff16815260200190815260200160002060009054906101000a900460ff16905092915050565b610f72611569565b600073ffffffffffffffffffffffffffffffffffffffff168173ffffffffffffffffffffffffffffffffffffffff1603610fe1576040517f08c379a0000000000000000000000000000000000000000000000000000000008152600401610fd890612fcd565b60405180910390fd5b610fea81611666565b50565b60007f80ac58cd000000000000000000000000000000000000000000000000000000007bffffffffffffffffffffffffffffffffffffffffffffffffffffffff1916827bffffffffffffffffffffffffffffffffffffffffffffffffffffffff191614806110b857507f5b5e139f000000000000000000000000000000000000000000000000000000007bffffffffffffffffffffffffffffffffffffffffffffffffffffffff1916827bffffffffffffffffffffffffffffffffffffffffffffffffffffffff1916145b806110c857506110c782611935565b5b9050919050565b6110d8816118f4565b611117576040517f08c379a000000000000000000000000000000000000000000000000000000000815260040161110e90612e17565b60405180910390fd5b50565b600033905090565b816004600083815260200190815260200160002060006101000a81548173ffffffffffffffffffffffffffffffffffffffff021916908373ffffffffffffffffffffffffffffffffffffffff160217905550808273ffffffffffffffffffffffffffffffffffffffff1661119583610ab2565b73ffffffffffffffffffffffffffffffffffffffff167f8c5be1e5ebec7d5bd14f71427d1e84f3dd0314c0f7b2291e5b200ac8c7c3b92560405160405180910390a45050565b6000806111e783610ab2565b90508073ffffffffffffffffffffffffffffffffffffffff168473ffffffffffffffffffffffffffffffffffffffff16148061122957506112288185610ed6565b5b8061126757508373ffffffffffffffffffffffffffffffffffffffff1661124f846106b6565b73ffffffffffffffffffffffffffffffffffffffff16145b91505092915050565b8273ffffffffffffffffffffffffffffffffffffffff1661129082610ab2565b73ffffffffffffffffffffffffffffffffffffffff16146112e6576040517f08c379a00000000000000000000000000000000000000000000000000000000081526004016112dd9061305f565b60405180910390fd5b600073ffffffffffffffffffffffffffffffffffffffff168273ffffffffffffffffffffffffffffffffffffffff1603611355576040517f08c379a000000000000000000000000000000000000000000000000000000000815260040161134c906130f1565b60405180910390fd5b611362838383600161199f565b8273ffffffffffffffffffffffffffffffffffffffff1661138282610ab2565b73ffffffffffffffffffffffffffffffffffffffff16146113d8576040517f08c379a00000000000000000000000000000000000000000000000000000000081526004016113cf9061305f565b60405180910390fd5b6004600082815260200190815260200160002060006101000a81549073ffffffffffffffffffffffffffffffffffffffff02191690556001600360008573ffffffffffffffffffffffffffffffffffffffff1673ffffffffffffffffffffffffffffffffffffffff168152602001908152602001600020600082825403925050819055506001600360008473ffffffffffffffffffffffffffffffffffffffff1673ffffffffffffffffffffffffffffffffffffffff16815260200190815260200160002060008282540192505081905550816002600083815260200190815260200160002060006101000a81548173ffffffffffffffffffffffffffffffffffffffff021916908373ffffffffffffffffffffffffffffffffffffffff160217905550808273ffffffffffffffffffffffffffffffffffffffff168473ffffffffffffffffffffffffffffffffffffffff167fddf252ad1be2c89b69c2b068fc378daa952ba7f163c4a11628f55a4df523b3ef60405160405180910390a46115648383836001611afd565b505050565b61157161111a565b73ffffffffffffffffffffffffffffffffffffffff1661158f610c38565b73ffffffffffffffffffffffffffffffffffffffff16146115e5576040517f08c379a00000000000000000000000000000000000000000000000000000000081526004016115dc9061315d565b60405180910390fd5b565b60006002600083815260200190815260200160002060009054906101000a900473ffffffffffffffffffffffffffffffffffffffff169050919050565b6001816000016000828254019250508190555050565b600081600001549050919050565b611662828260405180602001604052806000815250611b03565b5050565b6000600a60009054906101000a900473ffffffffffffffffffffffffffffffffffffffff16905081600a60006101000a81548173ffffffffffffffffffffffffffffffffffffffff021916908373ffffffffffffffffffffffffffffffffffffffff1602179055508173ffffffffffffffffffffffffffffffffffffffff168173ffffffffffffffffffffffffffffffffffffffff167f8be0079c531659141344cd1fd0a4f28419497f9722a3daafe3b4186f6b6457e060405160405180910390a35050565b8173ffffffffffffffffffffffffffffffffffffffff168373ffffffffffffffffffffffffffffffffffffffff160361179a576040517f08c379a0000000000000000000000000000000000000000000000000000000008152600401611791906131c9565b60405180910390fd5b80600560008573ffffffffffffffffffffffffffffffffffffffff1673ffffffffffffffffffffffffffffffffffffffff16815260200190815260200160002060008473ffffffffffffffffffffffffffffffffffffffff1673ffffffffffffffffffffffffffffffffffffffff16815260200190815260200160002060006101000a81548160ff0219169083151502179055508173ffffffffffffffffffffffffffffffffffffffff168373ffffffffffffffffffffffffffffffffffffffff167f17307eab39ab6107e8899845ad3d59bd9653f200f220920489ca2b5937696c318360405161188b9190612405565b60405180910390a3505050565b6118a3848484611270565b6118af84848484611b5e565b6118ee576040517f08c379a00000000000000000000000000000000000000000000000000000000081526004016118e59061325b565b60405180910390fd5b50505050565b60008073ffffffffffffffffffffffffffffffffffffffff16611916836115e7565b73ffffffffffffffffffffffffffffffffffffffff1614159050919050565b60007f01ffc9a7000000000000000000000000000000000000000000000000000000007bffffffffffffffffffffffffffffffffffffffffffffffffffffffff1916827bffffffffffffffffffffffffffffffffffffffffffffffffffffffff1916149050919050565b6119ab84848484611ce5565b60018111156119ef576040517f08c379a00000000000000000000000000000000000000000000000000000000081526004016119e6906132ed565b60405180910390fd5b6000829050600073ffffffffffffffffffffffffffffffffffffffff168573ffffffffffffffffffffffffffffffffffffffff1603611a3657611a3181611e0b565b611a75565b8373ffffffffffffffffffffffffffffffffffffffff168573ffffffffffffffffffffffffffffffffffffffff1614611a7457611a738582611e54565b5b5b600073ffffffffffffffffffffffffffffffffffffffff168473ffffffffffffffffffffffffffffffffffffffff1603611ab757611ab281611fc1565b611af6565b8473ffffffffffffffffffffffffffffffffffffffff168473ffffffffffffffffffffffffffffffffffffffff1614611af557611af48482612092565b5b5b5050505050565b50505050565b611b0d8383612111565b611b1a6000848484611b5e565b611b59576040517f08c379a0000000000000000000000000000000000000000000000000000000008152600401611b509061325b565b60405180910390fd5b505050565b6000611b7f8473ffffffffffffffffffffffffffffffffffffffff1661232e565b15611cd8578373ffffffffffffffffffffffffffffffffffffffff1663150b7a02611ba861111a565b8786866040518563ffffffff1660e01b8152600401611bca9493929190613362565b6020604051808303816000875af1925050508015611c0657506040513d601f19601f82011682018060405250810190611c0391906133c3565b60015b611c88573d8060008114611c36576040519150601f19603f3d011682016040523d82523d6000602084013e611c3b565b606091505b506000815103611c80576040517f08c379a0000000000000000000000000000000000000000000000000000000008152600401611c779061325b565b60405180910390fd5b805181602001fd5b63150b7a0260e01b7bffffffffffffffffffffffffffffffffffffffffffffffffffffffff1916817bffffffffffffffffffffffffffffffffffffffffffffffffffffffff191614915050611cdd565b600190505b949350505050565b6001811115611e0557600073ffffffffffffffffffffffffffffffffffffffff168473ffffffffffffffffffffffffffffffffffffffff1614611d795780600360008673ffffffffffffffffffffffffffffffffffffffff1673ffffffffffffffffffffffffffffffffffffffff1681526020019081526020016000206000828254611d7191906133f0565b925050819055505b600073ffffffffffffffffffffffffffffffffffffffff168373ffffffffffffffffffffffffffffffffffffffff1614611e045780600360008573ffffffffffffffffffffffffffffffffffffffff1673ffffffffffffffffffffffffffffffffffffffff1681526020019081526020016000206000828254611dfc9190613424565b925050819055505b5b50505050565b6008805490506009600083815260200190815260200160002081905550600881908060018154018082558091505060019003906000526020600020016000909190919091505550565b60006001611e6184610b6d565b611e6b91906133f0565b9050600060076000848152602001908152602001600020549050818114611f50576000600660008673ffffffffffffffffffffffffffffffffffffffff1673ffffffffffffffffffffffffffffffffffffffff168152602001908152602001600020600084815260200190815260200160002054905080600660008773ffffffffffffffffffffffffffffffffffffffff1673ffffffffffffffffffffffffffffffffffffffff168152602001908152602001600020600084815260200190815260200160002081905550816007600083815260200190815260200160002081905550505b6007600084815260200190815260200160002060009055600660008573ffffffffffffffffffffffffffffffffffffffff1673ffffffffffffffffffffffffffffffffffffffff16815260200190815260200160002060008381526020019081526020016000206000905550505050565b60006001600880549050611fd591906133f0565b905060006009600084815260200190815260200160002054905060006008838154811061200557612004612c93565b5b90600052602060002001549050806008838154811061202757612026612c93565b5b90600052602060002001819055508160096000838152602001908152602001600020819055506009600085815260200190815260200160002060009055600880548061207657612075613458565b5b6001900381819060005260206000200160009055905550505050565b600061209d83610b6d565b905081600660008573ffffffffffffffffffffffffffffffffffffffff1673ffffffffffffffffffffffffffffffffffffffff168152602001908152602001600020600083815260200190815260200160002081905550806007600084815260200190815260200160002081905550505050565b600073ffffffffffffffffffffffffffffffffffffffff168273ffffffffffffffffffffffffffffffffffffffff1603612180576040517f08c379a0000000000000000000000000000000000000000000000000000000008152600401612177906134d3565b60405180910390fd5b612189816118f4565b156121c9576040517f08c379a00000000000000000000000000000000000000000000000000000000081526004016121c09061353f565b60405180910390fd5b6121d760008383600161199f565b6121e0816118f4565b15612220576040517f08c379a00000000000000000000000000000000000000000000000000000000081526004016122179061353f565b60405180910390fd5b6001600360008473ffffffffffffffffffffffffffffffffffffffff1673ffffffffffffffffffffffffffffffffffffffff16815260200190815260200160002060008282540192505081905550816002600083815260200190815260200160002060006101000a81548173ffffffffffffffffffffffffffffffffffffffff021916908373ffffffffffffffffffffffffffffffffffffffff160217905550808273ffffffffffffffffffffffffffffffffffffffff16600073ffffffffffffffffffffffffffffffffffffffff167fddf252ad1be2c89b69c2b068fc378daa952ba7f163c4a11628f55a4df523b3ef60405160405180910390a461232a600083836001611afd565b5050565b6000808273ffffffffffffffffffffffffffffffffffffffff163b119050919050565b6000604051905090565b600080fd5b600080fd5b60007fffffffff0000000000000000000000000000000000000000000000000000000082169050919050565b61239a81612365565b81146123a557600080fd5b50565b6000813590506123b781612391565b92915050565b6000602082840312156123d3576123d261235b565b5b60006123e1848285016123a8565b91505092915050565b60008115159050919050565b6123ff816123ea565b82525050565b600060208201905061241a60008301846123f6565b92915050565b600081519050919050565b600082825260208201905092915050565b60005b8381101561245a57808201518184015260208101905061243f565b60008484015250505050565b6000601f19601f8301169050919050565b600061248282612420565b61248c818561242b565b935061249c81856020860161243c565b6124a581612466565b840191505092915050565b600060208201905081810360008301526124ca8184612477565b905092915050565b6000819050919050565b6124e5816124d2565b81146124f057600080fd5b50565b600081359050612502816124dc565b92915050565b60006020828403121561251e5761251d61235b565b5b600061252c848285016124f3565b91505092915050565b600073ffffffffffffffffffffffffffffffffffffffff82169050919050565b600061256082612535565b9050919050565b61257081612555565b82525050565b600060208201905061258b6000830184612567565b92915050565b61259a81612555565b81146125a557600080fd5b50565b6000813590506125b781612591565b92915050565b600080604083850312156125d4576125d361235b565b5b60006125e2858286016125a8565b92505060206125f3858286016124f3565b9150509250929050565b612606816124d2565b82525050565b600060208201905061262160008301846125fd565b92915050565b6000806000606084860312156126405761263f61235b565b5b600061264e868287016125a8565b935050602061265f868287016125a8565b9250506040612670868287016124f3565b9150509250925092565b6000602082840312156126905761268f61235b565b5b600061269e848285016125a8565b91505092915050565b600081519050919050565b600082825260208201905092915050565b6000819050602082019050919050565b6126dc816124d2565b82525050565b60006126ee83836126d3565b60208301905092915050565b6000602082019050919050565b6000612712826126a7565b61271c81856126b2565b9350612727836126c3565b8060005b8381101561275857815161273f88826126e2565b975061274a836126fa565b92505060018101905061272b565b5085935050505092915050565b6000602082019050818103600083015261277f8184612707565b905092915050565b612790816123ea565b811461279b57600080fd5b50565b6000813590506127ad81612787565b92915050565b600080604083850312156127ca576127c961235b565b5b60006127d8858286016125a8565b92505060206127e98582860161279e565b9150509250929050565b600080fd5b600080fd5b7f4e487b7100000000000000000000000000000000000000000000000000000000600052604160045260246000fd5b61283582612466565b810181811067ffffffffffffffff82111715612854576128536127fd565b5b80604052505050565b6000612867612351565b9050612873828261282c565b919050565b600067ffffffffffffffff821115612893576128926127fd565b5b61289c82612466565b9050602081019050919050565b82818337600083830152505050565b60006128cb6128c684612878565b61285d565b9050828152602081018484840111156128e7576128e66127f8565b5b6128f28482856128a9565b509392505050565b600082601f83011261290f5761290e6127f3565b5b813561291f8482602086016128b8565b91505092915050565b600080600080608085870312156129425761294161235b565b5b6000612950878288016125a8565b9450506020612961878288016125a8565b9350506040612972878288016124f3565b925050606085013567ffffffffffffffff81111561299357612992612360565b5b61299f878288016128fa565b91505092959194509250565b600080604083850312156129c2576129c161235b565b5b60006129d0858286016125a8565b92505060206129e1858286016125a8565b9150509250929050565b7f4e487b7100000000000000000000000000000000000000000000000000000000600052602260045260246000fd5b60006002820490506001821680612a3257607f821691505b602082108103612a4557612a446129eb565b5b50919050565b7f4552433732313a20617070726f76616c20746f2063757272656e74206f776e6560008201527f7200000000000000000000000000000000000000000000000000000000000000602082015250565b6000612aa760218361242b565b9150612ab282612a4b565b604082019050919050565b60006020820190508181036000830152612ad681612a9a565b9050919050565b7f4552433732313a20617070726f76652063616c6c6572206973206e6f7420746f60008201527f6b656e206f776e6572206f7220617070726f76656420666f7220616c6c000000602082015250565b6000612b39603d8361242b565b9150612b4482612add565b604082019050919050565b60006020820190508181036000830152612b6881612b2c565b9050919050565b7f4552433732313a2063616c6c6572206973206e6f7420746f6b656e206f776e6560008201527f72206f7220617070726f76656400000000000000000000000000000000000000602082015250565b6000612bcb602d8361242b565b9150612bd682612b6f565b604082019050919050565b60006020820190508181036000830152612bfa81612bbe565b9050919050565b7f455243373231456e756d657261626c653a206f776e657220696e646578206f7560008201527f74206f6620626f756e6473000000000000000000000000000000000000000000602082015250565b6000612c5d602b8361242b565b9150612c6882612c01565b604082019050919050565b60006020820190508181036000830152612c8c81612c50565b9050919050565b7f4e487b7100000000000000000000000000000000000000000000000000000000600052603260045260246000fd5b7f4e487b7100000000000000000000000000000000000000000000000000000000600052601160045260246000fd5b6000612cfc826124d2565b91507fffffffffffffffffffffffffffffffffffffffffffffffffffffffffffffffff8203612d2e57612d2d612cc2565b5b600182019050919050565b7f455243373231456e756d657261626c653a20676c6f62616c20696e646578206f60008201527f7574206f6620626f756e64730000000000000000000000000000000000000000602082015250565b6000612d95602c8361242b565b9150612da082612d39565b604082019050919050565b60006020820190508181036000830152612dc481612d88565b9050919050565b7f4552433732313a20696e76616c696420746f6b656e2049440000000000000000600082015250565b6000612e0160188361242b565b9150612e0c82612dcb565b602082019050919050565b60006020820190508181036000830152612e3081612df4565b9050919050565b7f4552433732313a2061646472657373207a65726f206973206e6f74206120766160008201527f6c6964206f776e65720000000000000000000000000000000000000000000000602082015250565b6000612e9360298361242b565b9150612e9e82612e37565b604082019050919050565b60006020820190508181036000830152612ec281612e86565b9050919050565b7f4552433732314d657461646174613a2055524920717565727920666f72206e6f60008201527f6e6578697374656e7420746f6b656e0000000000000000000000000000000000602082015250565b6000612f25602f8361242b565b9150612f3082612ec9565b604082019050919050565b60006020820190508181036000830152612f5481612f18565b9050919050565b7f4f776e61626c653a206e6577206f776e657220697320746865207a65726f206160008201527f6464726573730000000000000000000000000000000000000000000000000000602082015250565b6000612fb760268361242b565b9150612fc282612f5b565b604082019050919050565b60006020820190508181036000830152612fe681612faa565b9050919050565b7f4552433732313a207472616e736665722066726f6d20696e636f72726563742060008201527f6f776e6572000000000000000000000000000000000000000000000000000000602082015250565b600061304960258361242b565b915061305482612fed565b604082019050919050565b600060208201905081810360008301526130788161303c565b9050919050565b7f4552433732313a207472616e7366657220746f20746865207a65726f2061646460008201527f7265737300000000000000000000000000000000000000000000000000000000602082015250565b60006130db60248361242b565b91506130e68261307f565b604082019050919050565b6000602082019050818103600083015261310a816130ce565b9050919050565b7f4f776e61626c653a2063616c6c6572206973206e6f7420746865206f776e6572600082015250565b600061314760208361242b565b915061315282613111565b602082019050919050565b600060208201905081810360008301526131768161313a565b9050919050565b7f4552433732313a20617070726f766520746f2063616c6c657200000000000000600082015250565b60006131b360198361242b565b91506131be8261317d565b602082019050919050565b600060208201905081810360008301526131e2816131a6565b9050919050565b7f4552433732313a207472616e7366657220746f206e6f6e20455243373231526560008201527f63656976657220696d706c656d656e7465720000000000000000000000000000602082015250565b600061324560328361242b565b9150613250826131e9565b604082019050919050565b6000602082019050818103600083015261327481613238565b9050919050565b7f455243373231456e756d657261626c653a20636f6e736563757469766520747260008201527f616e7366657273206e6f7420737570706f727465640000000000000000000000602082015250565b60006132d760358361242b565b91506132e28261327b565b604082019050919050565b60006020820190508181036000830152613306816132ca565b9050919050565b600081519050919050565b600082825260208201905092915050565b60006133348261330d565b61333e8185613318565b935061334e81856020860161243c565b61335781612466565b840191505092915050565b60006080820190506133776000830187612567565b6133846020830186612567565b61339160408301856125fd565b81810360608301526133a38184613329565b905095945050505050565b6000815190506133bd81612391565b92915050565b6000602082840312156133d9576133d861235b565b5b60006133e7848285016133ae565b91505092915050565b60006133fb826124d2565b9150613406836124d2565b925082820390508181111561341e5761341d612cc2565b5b92915050565b600061342f826124d2565b915061343a836124d2565b925082820190508082111561345257613451612cc2565b5b92915050565b7f4e487b7100000000000000000000000000000000000000000000000000000000600052603160045260246000fd5b7f4552433732313a206d696e7420746f20746865207a65726f2061646472657373600082015250565b60006134bd60208361242b565b91506134c882613487565b602082019050919050565b600060208201905081810360008301526134ec816134b0565b9050919050565b7f4552433732313a20746f6b656e20616c7265616479206d696e74656400000000600082015250565b6000613529601c8361242b565b9150613534826134f3565b602082019050919050565b600060208201905081810360008301526135588161351c565b905091905056fea26469706673582212204b37ade1e918cc4103efa80ad3c5fdc2722073c77838847363b34f64e843b87264736f6c63430008110033",
  "linkReferences": {},
  "deployedLinkReferences": {}
}